:020000040800F2
:1000000088100020010100081D140008290C0008B8
:100010000514000861030008D51C0008000000005A
:10002000000000000000000000000000D9160008D9
:100030007505000800000000B1140008D118000880
:100040001B0100081B0100081B0100081B01000820
:100050001B0100081B0100081B0100081B01000810
:100060001B0100081B0100081B0100081B01000800
:100070001B0100081B0100081B0100081B010008F0
:100080001B0100081B0100081B0100081B010008E0
:100090001B0100081B0100081B0100081B010008D0
:1000A0001B0100081B0100081B0100081B010008C0
:1000B0001B0100081B010008000000001B010008D4
:1000C0001B01000800000000000000001B010008E8
:1000D000000000001B0100081B01000800000000D8
:1000E0001B0100081B0100081B010008DFF80CD0F1
:1000F00000F024F900480047092300088810002078
:100100000648804706480047FEE7FEE7FEE7FEE7B1
:10011000FEE7FEE7FEE7FEE7FEE7FEE75919000807
:10012000ED000008D2B201E000F8012B491EFBD21D
:1001300070470022F6E710B513460A4604461946F2
:10014000FFF7F0FF204610BDF0B480EA0102D40FA3
:100150004200B2EB410F02D20246084611464A0065
:1001600042D0C30DDDB2C1F3C752AD1A202D35DA2E
:10017000C1F3160141F4000204B15242C5F1200658
:1001800002FA06F12A411044B3EBD05F23D0C4B188
:10019000012DA0EBC35009DCF0BC4FF0004202EA95
:1001A000C352DBB200F5000000F099B8400000F146
:1001B000807000EBC350A0F1807040EAD17049001C
:1001C00009E0490841EAC071A0EBC35000F5000006
:1001D000400800EBC350F0BC00F078B86142012247
:1001E00002EB4101001BF6E7F0BC704781F00041D3
:1001F000AAE780F00040A7E780EA010210B502F00C
:100200000043400022D04A001FD0010E01EB1261D2
:10021000C0F35600C2F3560240F4000042F400025C
:10022000A0FB022000047F39140400D0401C50EAD7
:10023000124001D44000491EC2B20C0604EBD0109B
:10024000401C4008802A02D003E0002010BD20F0AE
:100250000100002900DA0020184310BDC10F80EA18
:10026000E0700844CA079623002100F038B800F077
:10027000004220F00040C10DC0F3160040F4000021
:100280007F2901DA00207047962903DCC1F196012D
:10029000C84001E096398840002AF4D040427047B7
:1002A00030B50B46014600202022012409E021FA46
:1002B00002F59D4205D303FA02F5491B04FA02F543
:1002C0002844151EA2F10102F1DC30BD0029A8BFAF
:1002D0007047401C490008BF20F00100704710B46F
:1002E000B0FA80FC00FA0CF050EA010404BF10BC24
:1002F000704749B1CCF1200421FA04F411FA0CF151
:1003000018BF012121430843A3EB0C01CB1D4FEA89
:1003100000614FEA102042BF002010BC704700EB84
:10032000C35010440029A4BF10BC7047401C4900B2
:1003300008BF20F0010010BC70470000064C074DBC
:1003400006E0E06840F0010394E8070098471034A5
:10035000AC42F6D3FFF7CEFE486F0008686F000886
:1003600000BFFEE710B504460C48006820440B4966
:10037000086008460068B0F57A7F02DD4FF47A70B5
:10038000086006480068002802DA00200349086077
:100390000249098888B201F037F810BD1C0000201E
:1003A00038B504460121042001F0F8F803208DF847
:1003B00002004FF40060ADF80000012C03D11020C2
:1003C0008DF8030002E004208DF80300694602481E
:1003D00000F07DF938BD0000000801402DE9FC4126
:1003E0000646002700250020009001900120FFF71D
:1003F000D7FF4FF400615E4800F0FFF94FF4006151
:100400005B4800F0F8F9142000F0B6F84FF40061F2
:10041000574800F0F2F90020FFF7C2FF09E0681C1E
:10042000C5B2012000F005F9642D02DB0020BDE813
:10043000FC814FF400614E4800F0D4F90128EED061
:10044000002508E0681CC5B2012000F0F2F8642D18
:1004500001DB0020EBE74FF40061454800F0C2F9F2
:100460000028EFD00025002465E008E0681CC5B234
:10047000012000F0DEF8642D01DB0020D7E74FF407
:1004800000613B4800F0AEF90128EFD0002508E0FC
:10049000681CC5B2012000F0CCF8642D01DB0020FF
:1004A000C5E74FF40061324800F09CF90028EFD016
:1004B00000251E2000F0BDF84FF400612C4800F02C
:1004C00091F901281BD1E21704EB5272D2101DF8EA
:1004D00002202146E31704EB5373DB10A4EBC303A4
:1004E000C3F1070C012303FA0CF31A43D2B22046DE
:1004F000E31704EB5373DB100DF8032019E0E21748
:1005000004EB5272D2101DF802202146E31704EBCF
:100510005373DB10A4EBC303C3F1070C012303FAED
:100520000CF39A432046E31704EB5373DB100DF8EA
:100530000320601CC4B2282C97DB9DF800009DF8B6
:10054000011008449DF8021008449DF80310084467
:100550009DF80410884207D19DF8000030709DF886
:1005600002007070012700E0002738465FE70000B6
:100570000008014070470000044A116800BF0A18D3
:10058000024B1B689A42FAD8704700000400002012
:100590004FF47A71484347E000BF00BF00BF00BF7F
:1005A00000BF00BF00BF00BF00BF00BF00BF00BF53
:1005B00000BF00BF00BF00BF00BF00BF00BF00BF43
:1005C00000BF00BF00BF00BF00BF00BF00BF00BF33
:1005D00000BF00BF00BF00BF00BF00BF00BF00BF23
:1005E00000BF00BF00BF00BF00BF00BF00BF00BF13
:1005F00000BF00BF00BF00BF00BF00BF00BF00BF03
:1006000000BF00BF00BF00BF00BF00BF00BF00BFF2
:1006100000BF00BF00BF00BF00BF00BF00BF00BFE2
:1006200000BF00BF00BF00BF011EA0F10100B3D199
:10063000704747E000BF00BF00BF00BF00BF00BF62
:1006400000BF00BF00BF00BF00BF00BF00BF00BFB2
:1006500000BF00BF00BF00BF00BF00BF00BF00BFA2
:1006600000BF00BF00BF00BF00BF00BF00BF00BF92
:1006700000BF00BF00BF00BF00BF00BF00BF00BF82
:1006800000BF00BF00BF00BF00BF00BF00BF00BF72
:1006900000BF00BF00BF00BF00BF00BF00BF00BF62
:1006A00000BF00BF00BF00BF00BF00BF00BF00BF52
:1006B00000BF00BF00BF00BF00BF00BF00BF00BF42
:1006C00000BF00BF011EA0F10100B3D170472DE9AA
:1006D000F0410246002500260020002300240027C8
:1006E00091F803C00CF00F0591F803C00CF0100C4A
:1006F000BCF1000F03D091F802C04CEA050591F857
:1007000000C0BCF1000F31D0146800202BE04FF086
:10071000010C0CFA00F3B1F800C00CEA03069E428B
:1007200020D183004FF00F0C0CFA03F7BC4305FAFD
:1007300003FC4CEA040491F803C0BCF1280F06D175
:100740004FF0010C0CFA00FCC2F814C00AE091F85A
:1007500003C0BCF1480F05D14FF0010C0CFA00FCAE
:10076000C2F810C0401C0828D1D31460B1F800C0F2
:10077000BCF1FF0F34DD546800202EE000F1080CBE
:100780004FF0010808FA0CF3B1F800C00CEA0306B8
:100790009E4221D183004FF00F0C0CFA03F7BC43AB
:1007A00005FA03FC4CEA040491F803C0BCF1280FDD
:1007B00005D100F1080C08FA0CF8C2F8148091F881
:1007C00003C0BCF1480F07D100F1080C4FF001083D
:1007D00008FA0CF8C2F81080401C0828CED35460E8
:1007E000BDE8F0810246002093680B400BB1012068
:1007F00000E00020704741617047016170470000D0
:100800002DE9F84F04460F4692469B462646322075
:10081000009007F10F0083B204F10F0082B2394655
:10082000204600F007FC00256AE005EB05103D4975
:1008300011F810100A98007881425ED105EB05107E
:10084000384901EB400041780A984078814254D100
:100850004FF000084EE04FF0000943E00B9800BB5A
:1008600005EB05102F4901EB4000801C10F8081023
:10087000802040FA09F0014019B12B48A0F800A0EF
:1008800002E02948A0F800B02748008800F0A2FD47
:10089000601C84B2A01B102820D13446781C87B27B
:1008A00023E02148A0F800A005EB05101D4901EB4D
:1008B0004000801C10F80810802040FA09F0014028
:1008C00019B13946204600F04BFA601C84B2A01BD7
:1008D000102803D13446781C87B206E009F10100E4
:1008E00000F0FF09B9F1080FB8DB00BF08F1010003
:1008F00000F0FF08B8F1200FADDB00BF681C85B227
:100900000098854291DB09484088401E83B2074821
:100910000088401E82B20021084600F08BFBBDE833
:10092000F88F0000D82E0008140000207800002066
:100930002DE9F84F04460F4692469B462646012075
:10094000009007F1170083B204F1170082B2394614
:10095000204600F06FFB002572E005EB850000EB00
:100960004510404911F810100A980078814264D16E
:1009700005EB850000EB45103A4901EB400041785A
:100980000A984078814258D14FF0000852E04FF069
:10099000000947E00B9810BB05EB850000EB451004
:1009A000304901EB4000801C10F80810802040FA0C
:1009B00009F0014019B12C48A0F800A002E02A4833
:1009C000A0F800B02848008800F004FD601C84B244
:1009D000A01B182822D13446781C87B225E0224873
:1009E000A0F800A005EB850000EB45101D4901EBC8
:1009F0004000801C10F80800802141FA09F10840ED
:100A000018B13946204600F0ABF9601C84B2A01B37
:100A1000182803D13446781C87B206E009F101009A
:100A200000F0FF09B9F1080FB4DB00BF08F10100C5
:100A300000F0FF08B8F1480FA9DB00BF681C85B2C1
:100A40000098854289DB09484088401E83B20748E8
:100A50000088401E82B20021084600F0EBFABDE893
:100A6000F88F00007C35000814000020780000207A
:100A70002DE9F84F04460E4692469B462746012034
:100A8000009006F11F0083B204F11F0082B23146CC
:100A9000204600F0CFFA002574E005EB85104249AE
:100AA00011F810100A980078814268D105EB851082
:100AB0003D4901EB400041780A98407881425ED17F
:100AC00006F11F0083B204F11F0082B231462046B6
:100AD00000F0B0FA4FF000084EE04FF0000943E09C
:100AE0000B9800BB05EB85102F4901EB4000801CE3
:100AF00010F80800802141FA09F1084018B12B488C
:100B0000A0F800A002E02948A0F800B0274800881B
:100B100000F060FC601C84B2E01B202820D13C4621
:100B2000701C86B223E02148A0F800A005EB8510D8
:100B30001D4901EB4000801C10F80800802141FA9B
:100B400009F1084018B13146204600F009F9601C4F
:100B500084B2E01B202803D13C46701C86B206E01C
:100B600009F1010000F0FF09B9F1080FB8DB00BF7F
:100B700008F1010000F0FF08B8F1800FADDB00BF05
:100B8000681C85B20098854287DB09484088401E72
:100B900083B207480088401E82B20021084600F058
:100BA00049FABDE8F88F0000C6350008140000209F
:100BB0007800002010B5002402211A48FFF712FE29
:100BC00038B900BF02211748FFF70CFE0028F9D002
:100BD000012404211348FFF705FE38B900BF0421A2
:100BE0001048FFF7FFFD0028F9D0022408210D4826
:100BF000FFF7F8FD38B900BF08210A48FFF7F2FDFA
:100C00000028F9D0032410210648FFF7EBFD38B97E
:100C100000BF10210348FFF7E5FD0028F9D00424A8
:100C2000204610BD0008014000BFFEE72DE9F05F3F
:100C3000054615B90020BDE8F09F254800682C1A2C
:100C40002348007F032805DA2148007F401C204903
:100C5000087734E01E4909691D4A5269891A1C4AFD
:100C60001269A21A501AFFF7F9FA81461848C168AA
:100C70004846FFF7C1FA07462046FFF7EFFA8346DA
:100C8000134881685846FFF7B7FA81461049096949
:100C9000601AFFF7E3FA83460D4841685846FFF7AC
:100CA000ABFA82464946FFF74FFA80463946FFF7CE
:100CB0004BFA0646FFF7DBFA0549886100BF044896
:100CC000006903494861084604618069B3E7000090
:100CD0002000002008B50121042000F05FFC042062
:100CE0008DF8030003208DF802001E20ADF80000EF
:100CF00069460248FFF7EBFC08BD00000008014010
:100D000070B5064614484088401E83B212480088D9
:100D1000401E82B20021084600F08CF94FF40060BA
:100D20000E4908604010091F086000240AE00025F1
:100D300003E0304600F04EFB6D1C07480088A842D7
:100D4000F7D8641C04484088A042F0D84FF40060F3
:100D50000249091F086070BD78000020140C014092
:100D600030B504460D462946204600F059F90248A0
:100D7000008800F02FFB30BD1400002008B50121D1
:100D8000082000F00BFC4FF43E40ADF800000320BB
:100D90008DF8020010208DF8030069460848FFF71F
:100DA00096FC4FF48040ADF8000048208DF8030019
:100DB00003208DF8020069460148FFF788FC08BD52
:100DC000000C014010B5FFF7D9FF00F015F9CF2056
:100DD00000F068FA002000F051FAD92000F04EFA35
:100DE000302000F04BFAED2000F05CFA642000F0B7
:100DF00045FA032000F042FA122000F03FFA812069
:100E000000F03CFAE82000F04DFA852000F036FAB8
:100E1000102000F033FA7A2000F030FACB2000F0F6
:100E200041FA392000F02AFA2C2000F027FA00209D
:100E300000F024FA342000F021FA022000F01EFA1B
:100E4000F72000F02FFA202000F018FAEA2000F036
:100E500029FA002000F012FA002000F00FFAC0205A
:100E600000F020FA1B2000F009FAC12000F01AFA65
:100E7000122000F003FAC52000F014FA262000F03A
:100E8000FDF9262000F0FAF9C72000F00BFAB02097
:100E900000F0F4F9362000F005FA082000F0EEF931
:100EA0003A2000F0FFF9552000F0E8F9B12000F0F9
:100EB000F9F9002000F0E2F91A2000F0DFF9B6207D
:100EC00000F0F0F90A2000F0D9F9A22000F0D6F9DC
:100ED000F22000F0E7F9002000F0D0F9262000F021
:100EE000E1F9012000F0CAF9E02000F0DBF91F2051
:100EF00000F0C4F9242000F0C1F9242000F0BEF96C
:100F00000D2000F0BBF9122000F0B8F9092000F024
:100F1000B5F9522000F0B2F9B72000F0AFF93F2048
:100F200000F0ACF90C2000F0A9F9152000F0A6F9AA
:100F3000062000F0A3F90E2000F0A0F9082000F030
:100F40009DF9002000F09AF9E12000F0ABF90020B3
:100F500000F094F91B2000F091F91B2000F08EF9AD
:100F6000022000F08BF90E2000F088F9062000F036
:100F700085F92E2000F082F9482000F07FF93F200B
:100F800000F07CF9032000F079F90A2000F076F9EE
:100F9000092000F073F9312000F070F9372000F0DB
:100FA0006DF91F2000F06AF92B2000F07BF900207A
:100FB00000F064F9002000F061F9012000F05EF912
:100FC0003F2000F05BF92A2000F06CF9002000F0CF
:100FD00055F9002000F052F9002000F04FF9EF2001
:100FE00000F04CF9112000F05DF9292000F05AF9C9
:100FF000002000F07DF910BD10B54FF48050074976
:1010000008606420FFF7C4FA4FF480500349091FB9
:1010100008603220FFF7BCFA10BD0000140C01403C
:1010200030B504460D462B4622462946204600F0A0
:1010300001F830BDF0B504460D4616461F4611496D
:10104000887A00F02FF9201200F018F9E0B200F0D1
:1010500015F9301200F012F9F0B200F00FF9094959
:10106000087B00F01FF9281200F008F9E8B200F040
:1010700005F9381200F002F9F8B200F0FFF800F0BC
:1010800025F9F0BD780000202DE9FF4F82B08146A0
:101090008A469346DDE90F64424800880190A6F134
:1010A0002000C6B204EBD47009EB6000401E82B28F
:1010B0000AEB0400401E83B2514648460094FFF7F5
:1010C000B9FF119870BB002529E00C2C07D106EB65
:1010D0004600354901EB800010F8058004E03348F4
:1010E00000EB061010F80580002711E008F0010061
:1010F00018B12C48A0F800B002E02A4905980880F1
:101100002848008800F066F94FEA6808781CC7B2E2
:1011100004EBD471B7EB610FE8DB681CC5B2A542E4
:10112000D3DB2DE0002529E00C2C07D106EB46008F
:101130001D4901EB800010F8058004E01B4800EB1E
:10114000061010F80580002711E01648A0F800B03E
:1011500008F0010038B10AEB050291B209EB070271
:1011600090B2FFF7FDFD4FEA6808781CC7B204EBA8
:10117000D471B7EB610FE8DB681CC5B2A542D3DBC5
:101180000849019808800A484088401E83B20848F0
:101190000088401E82B200210846FFF74BFF06B0D0
:1011A000BDE8F08F1400002074240008E82800082F
:1011B000780000202DE9FE4106460F4615461C46E4
:1011C000DDF824801DE013480088401EB04204DB97
:1011D00010484088401EB84201DABDE8FE81207800
:1011E0004FF6FF7347F67C5239468DE821013046B1
:1011F000FFF74AFF284605EBD07106EB61018EB27E
:10120000641C20787E2802DC20782028DBDA00BFEE
:10121000E3E70000780000202DE9FE4106460F4676
:1012200015461C46DDF824801DE013480088401E4A
:10123000B04204DB10484088401EB84201DABDE8E5
:10124000FE8120784FF6FF734FF4784239468DE8DF
:1012500021013046FFF718FF284605EBD07106EB59
:1012600061018EB2641C20787E2802DC2078202860
:10127000DBDA00BFE3E700007800002010B5044689
:101280004FF40060064908604010091F08602046BE
:1012900000F002FA4FF400600149091F086010BD18
:1012A000140C014010B504464FF400600649086074
:1012B00040100860204600F0EFF94FF4006002494A
:1012C000091F086010BD0000140C014000B5024960
:1012D000087AFFF7E7FF00BD7800002030B505462B
:1012E0000C462846FFF7DEFFE0B2FFF7C7FF30BD30
:1012F00010B504462A201E4948812B2088812C20C5
:10130000088134B1012C0FD0022C18D0032C2CD121
:1013100020E0F020164908804FF4A0704880482152
:101320003620FFF7DBFF21E04FF4A0701049088062
:10133000F020488068213620FFF7D0FF16E0F0202B
:101340000B4908804FF4A0704880C8213620FFF771
:10135000C5FF0BE04FF4A07005490880F0204880DD
:10136000A8213620FFF7BAFF00E000BF00BF10BD84
:101370007800002008B50121102000F00FF910209E
:101380008DF8030003208DF802001D20ADF8000049
:1013900069460F48FFF79BF90220ADF80000694647
:1013A0000B48FFF794F901210948FFF726FA0221BB
:1013B0000748FFF722FA04210548FFF71EFA082123
:1013C0000348FFF71AFA10210148FFF716FA08BD83
:1013D0000010014010B504464FF400600849086051
:1013E0004010091F0860201200F056F9E0B200F02A
:1013F00053F94FF400600249091F086010BD000056
:10140000140C014000BFFEE710B504462146024817
:1014100000F035FB10BD00000004004070470000E4
:101420002DE9F84F04460D4616461F46DDF828A064
:101430004FF0000905EB070CACF1010C1FFA8CF31F
:1014400004EB060CACF1010C1FFA8CF2A9B2A0B2AD
:10145000FFF7F0FD009516E0A3460EE009F101004C
:101460001AF800001AF8091040EA01284046FFF770
:10147000B1FF09F102090BF1010B30195845EDDC00
:101480000098401C0090791900988142E4DC0748DC
:101490004088401E83B205480088401E82B2002169
:1014A0000846FFF7C7FDBDE8F88F00007800002070
:1014B0007047000038B50546174800682C1A002C04
:1014C00007DC002015A31022BE2100901820FFF792
:1014D000A3FE002C09DD012C07DC002015A310223F
:1014E000BE2100901820FFF797FE012C09DD022C89
:1014F00007DC002015A31022BE2100901820FFF762
:101500008BFE032C07DB002016A31022BE210090C7
:101510001820FFF781FE38BD2000002046414E20F4
:1015200020202020202020202020202020202020BB
:10153000200000002020202020204C4F5720202079
:1015400020202020202020202000000020202020FB
:1015500020202020202020204D4944202020202011
:1015600020000000202020202020202020202020DB
:1015700020202020202020484900000029B1064AD0
:10158000D2690243044BDA6104E0034AD269824320
:10159000014BDA61704700000010024029B1064A91
:1015A00092690243044B9A6104E0034A92698243C0
:1015B000014B9A61704700000010024030B50021D5
:1015C0000022002400232D4D6D6805F00C0121B18F
:1015D000042905D0082923D105E0294D056022E022
:1015E000284D05601FE0254D6D6805F47012234DF0
:1015F0006D6805F48034022505EB92421CB9224D3A
:10160000554305600BE01D4D6D6805F400351DB1B7
:101610001E4D5543056002E01A4D5543056002E03A
:10162000174D056000BF00BF144D6D6805F0F00157
:101630000909174D6B5C0568DD4045600F4D6D680D
:1016400005F4E061090A124D6B5C4568DD40856078
:101650000A4D6D6805F46051C90A0D4D6B5C456813
:10166000DD40C560054D6D6805F44041890B094DAD
:101670006B5CC568B5FBF3F5056130BD0010024039
:1016800000127A00001BB70000093D00808D5B004E
:1016900040000020500000200021082117E000F049
:1016A000800222B14FF400420A4B1A6004E04FF46A
:1016B0000042084B1B1D1A604FF40052054B1B1DC6
:1016C0001A601B1F1A604206100E4A1ED1B2002972
:1016D000E5DC7047100C0140704710B500F002F8CF
:1016E00010BD00000CB50020019000903348006848
:1016F00040F480303149086000BF3048006800F491
:10170000003000900198401C0190009818B9019891
:10171000B0F5A06FF1D12948006800F4003010B195
:101720000120009001E0002000900098012843D1A2
:101730002348006840F0100021490860084600680E
:1017400020F0030008600846006840F002000860CE
:101750001A48406819494860084640684860084689
:10176000406840F4806048600846406820F47C107F
:1017700048600846406840F48810486008460068A1
:1017800040F08070086000BF0C48006800F00070F6
:101790000028F9D00948406820F003000749486054
:1017A0000846406840F00200486000BF03484068B7
:1017B00000F00C000828F9D10CBD00000010024018
:1017C000002002402DE9FF4F83B00646884691462F
:1017D000DDE91147109DB2464FF0000B71E0BBF1FF
:1017E000000F40D104EBD471384A1288A2EB61019A
:1017F000B14204DB35494988091B414502DA07B08B
:10180000BDE8F08F2878802802DD4FF0010B58E00A
:1018100028780D2806D108EB04001FFA80F85646F8
:101820006D1C1EE0102C0DDD102128788DE8830042
:101830004A4641463046069BFFF726FC06F1080063
:1018400086B20EE028788DE891004A46414630463F
:10185000069BFFF719FC204604EBD07106EB6101F3
:101860008EB26D1C2DE019480088001BB04204DBCD
:1018700016484088001B404500DAC0E74FF0000BD7
:10188000202C08D1CDE900574A4641463046069BF8
:10189000FFF7EEF812E0182C08D1CDE900574A46C0
:1018A00041463046069BFFF743F807E0CDE9005775
:1018B0004A4641463046069BFEF7A2FFAD1C301952
:1018C00086B2287800288AD100BF98E778000020E7
:1018D00007480068401C0649086006480068401C2C
:1018E0000449086004480068401C034908607047C8
:1018F00004000020080000200C00002070B5014604
:101900000A46501EB0F1807F01D301201BE0501E1B
:101910004FF0E023586158170F23002804DB1C0701
:10192000250E0B4C255406E01C07260E094C00F032
:101930000F052D1F665500BF00204FF0E023986172
:1019400007201861002008B100BFFEE770BD00004D
:1019500000E400E018ED00E010B51348006840F026
:1019600001001149086008464068104908400E49C6
:101970004860084600680E4908400B490860084660
:10198000006820F4802008600846406820F4FE00CB
:1019900048604FF41F008860FFF79FFE4FF0006023
:1019A0000449086010BD0000001002400000FFF86C
:1019B000FFFFF6FE08ED00E021B1028842F0800250
:1019C000028004E002884FF67F731A40028070475D
:1019D00021B1028842F00102028004E002884FF641
:1019E000FE731A400280704770B500220023002465
:1019F000058C4EF6FF7635400584038C8488828BF7
:101A000048F6FF752A404FF6FF452A400D884FF6ED
:101A1000FF7606EA05252A434DF6FF752B400D8912
:101A200006EA05352B434D8806EA05352B430B4D59
:101A3000A84202D00A4DA84208D14BF6FF752C40AF
:101A40008D894FF6FF7606EA85152C4384808283C4
:101A5000CD88A0F84050038470BD0000002C0140E8
:101A6000003401400A460021818B4FF2FF73194078
:101A70004FF6FF7303EA0223194381837047A0F8EE
:101A800040107047002202881D4B98420ED01D4B1B
:101A900098420BD0B0F1804F08D01B4B984205D034
:101AA0001A4B984202D01A4B984204D14FF68F73CA
:101AB0001A404B881A43174B984207D0164B98424E
:101AC00004D04FF6FF431A40CB881A4302808B881C
:101AD00083850B8803850A4B98420BD0094B9842AB
:101AE00008D00E4B984205D00D4B984202D00D4BBA
:101AF000984201D10B7A038601238382704700004C
:101B0000002C014000340140000400400008004067
:101B1000000C004000100040001400400040014054
:101B2000004401400048014070B588B004460E46AC
:101B3000154601210220FFF721FD01210820FFF7B2
:101B40002DFD18208DF813000220ADF810000320A1
:101B50008DF8120004A91848FEF7B9FD701E80B276
:101B6000ADF81800601E80B2ADF814000020ADF88A
:101B70001A00ADF8160005A91048FFF783FF0121F0
:101B80000E48FFF719FF7020ADF800000020ADF8F7
:101B90000800ADF806500120ADF80200694607487C
:101BA000FFF722FF08210548FFF75CFF01210348EA
:101BB000FFF70EFF08B070BD000C014000040040AC
:101BC00021B1828942F40052828104E082894DF67B
:101BD000FF731A408281704702460020B1F5007FF2
:101BE00000D100BF13880B400BB1012000E00020A2
:101BF000704700002DE9F04786B005460E460024E8
:101C0000A24600BFA1460027B08900B100BF2F4601
:101C10002C8A4CF6FF700440F08804432C82AC8977
:101C20004EF6F3100440B0883189084371890843A7
:101C30000443AC81AC8A4FF6FF400440B0890443B2
:101C4000AC8201A8FFF7BAFC1F48874202D1DDF839
:101C500010A001E0DDF80CA0A88900F4004040B11C
:101C60000AEBCA0000EB0A1031684900B0FBF1F83A
:101C700007E00AEBCA0000EB0A1031688900B0FBEC
:101C8000F1F86420B8FBF0F004012009642101FBA5
:101C90001089A88900F4004040B1322000EBC9004F
:101CA000B0FBF1F000F00700044308E0322000EB45
:101CB00009106421B0FBF1F000F00F0004432C8107
:101CC00006B0BDE8F087000000380140C1F308020B
:101CD0008280704700BFFEE700B585B00121880310
:101CE000FFF75CFC01210420FFF758FC18208DF859
:101CF000130003208DF812004FF40070ADF81000AF
:101D000004A91348FEF7E3FC04208DF81300000239
:101D1000ADF8100004A90E48FEF7D9FC4FF4165098
:101D200000900020ADF80C000C20ADF80A00002057
:101D3000ADF80800ADF80600ADF8040069460548A6
:101D4000FFF758FF01210348FFF73AFF05B000BD38
:101D500000080140003801400FB4054B10B503A93D
:101D6000044A029800F02CF810BC5DF814FB000047
:101D7000851F0008540000200FB4084B10B504A9BB
:101D800002AA039800F01CF8044602A9002000F003
:101D9000F3F8204610BC5DF814FB0000791F000822
:101DA00002E008C8121F08C1002AFAD17047704724
:101DB000002001E001C1121F002AFBD17047000082
:101DC0002DE9FF4F8BB09A460F460546002606E0E8
:101DD00025280BD052460D9990476D1C761C28780B
:101DE0000028F5D10FB03046BDE8F08F0024A046A2
:101DF0000122604900E0044315F8013F203B02FA4C
:101E000003F00842F7D128782E2817D115F8010FD2
:101E100044F004042A280ED06FF02F022878A0F195
:101E2000300109290AD808EB880102EB410100EBD7
:101E300001086D1CF2E757F8048B6D1C287869289F
:101E40003ED006DC0028CDD063280BD0642804D116
:101E500036E0732810D075284BD052460D99904724
:101E6000761C85E017F8040B8DF8000000208DF833
:101E70000100E946012003E057F8049B4FF0FF30D2
:101E800061074FF0000401D40AE0641C44450DDAF8
:101E90008442FADB19F804100029F6D106E0641C2C
:101EA0008442FCDB19F804100029F8D1264404E030
:101EB00019F8010B52460D999047641EF8D257E06D
:101EC00001CF4FF00A0B002802DA40422D2102E038
:101ED000210504D52B218DF82410012103E0E10711
:101EE00005D02021F7E70DF1200908910CE0002131
:101EF000F9E701CF4FF00A0BF9E75946FEF7D0F9A1
:101F000001F1300209F8012D0028F6D1ADEB0900EE
:101F100000F1200B600701D44FF00108D84502DD25
:101F2000A8EB0B0000E000208046002406E009A892
:101F30005246005D0D999047641C761C08988442B7
:101F4000F5DB04E0302052460D999047761CB8F13D
:101F50000001A8F10108F5DC05E019F8010B524673
:101F60000D999047761CBBF10001ABF1010BF4DC3D
:101F70006D1C34E7092801000A68531C0B601070BF
:101F80007047000070B504460D4600BF802105482B
:101F9000FFF722FE0028F9D0A1B20248FFF796FE13
:101FA000204670BD003801400EB55C4828231A4613
:101FB000202100901020FFF733FA0020102158A2B2
:101FC0004FF6FF73CDE90021029047F67C522C2199
:101FD0004820FFF7F7FB0020102153A24FF6FF73B4
:101FE000CDE90021029047F67C522C219020FFF78A
:101FF000E9FB4E4828231A46502100901020FFF795
:102000000FFA002010214AA24FF6FF73CDE90021FC
:10201000029047F67C525C214820FFF7D3FB00205A
:10202000102145A24FF6FF73CDE90021029047F63B
:102030007C525C219020FFF7C5FB002010213FA2BD
:102040004FF6FF73CDE90021029047F67C528421C0
:102050001020FFF7B7FB0020102133A24FF6FF73CB
:10206000CDE90021029047F67C5284218820FFF7B9
:10207000A9FB0020102134A24FF6FF73CDE9002107
:10208000029047F67C52A4211820FFF79BFB00200A
:1020900010212FA24FF6FF73CDE90021029047F6E1
:1020A0007C52A4214820FFF78DFB002010212AA29A
:1020B0004FF6FF73CDE90021029047F67C52A42130
:1020C0007820FFF77FFB0020102125A24FF6FF7339
:1020D000CDE90021029047F67C52A421A820FFF709
:1020E00071FB002020A31022BE2100901820FFF7D2
:1020F00061F82348027823A12348FFF73DFE002022
:102100001021214A4FF6FF73CDE9002102904FF6CE
:10211000074284216020FFF755FB0EBD48360008BA
:10212000CEC2B6C83A000000A1E60000C8420008CE
:10213000CAAAB6C83A00000025000000D4A4B6A878
:10214000CEC2B6C83A000000B7E7CBD90000000005
:10215000B5CDCBD900000000D6D0CBD9000000000F
:10216000B8DFCBD90000000046414E2020204C4F64
:10217000572020204D4944202020204849000000BD
:1021800001000020256400005800002000B593B035
:10219000402103A8FDF7CDFF184840231A4620210F
:1021A00000905020FFF73CF915A103A8FFF7E4FDCC
:1021B0000020102103AA4FF6FF73CDE90021029001
:1021C0004FF4784260212820FFF7FCFA002010210C
:1021D00010A24FF6FF73CDE90021029047F67C5222
:1021E00082213C20FFF7EEFA00200CA3102296215A
:1021F00000903C20FEF7DEFF13B000BD484F000802
:10220000504944BAE3CEC2BFD8D6C6B9DCC0EDCF80
:10221000B5CDB300E3C6C5F4000000003139313359
:1022200036303232380000000EB5FEF7C3FC01280C
:1022300006D0022812D003281ED0042858D139E035
:102240002D480078022808D14FF6FF70FEF758FDA0
:10225000FFF7AAFE0120284908704AE026480078C6
:10226000012808D14FF6FF70FEF74AFDFFF78EFFF9
:102270000220214908703CE01F480078012818D14D
:102280001E480068401C1D49086008461CA10268E1
:102290001C48FFF771FD002010211A4A4FF6FF730A
:1022A000CDE9002102904FF6074284216020FFF71C
:1022B00089FA1EE010480078012818D10F480068FC
:1022C000401E0E49086008460DA102680D48FFF740
:1022D00053FD002010210B4A4FF6FF73CDE900217A
:1022E00002904FF6074284216020FFF76BFA00E06E
:1022F00000BF00BF0EBD0000020000202000002033
:102300002564000058000020A4B04248FFF7F6FA08
:10231000FFF730F8FEF7DEFCFFF7DEFC0A20FEF7E1
:102320002BF9FEF74FFD3C4802884FF47A714820A4
:10233000FFF7FAFBFFF738FE38A0FFF70DFD67E067
:102340003A4800680F2809D3002038490860384906
:102350004878FEF76BFC0446FEF704F8FFF764FFCD
:1023600034480068B0F5FA7F52D300203149086044
:102370002F48FEF733F8012847D1402114A8FDF774
:10238000D8FE20210CA8FDF7D4FE202104A8FDF7DB
:10239000D0FE27480378427827A114A8FFF7ECFC69
:1023A000234842782AA10CA8FFF7E6FC20480278CF
:1023B00027A104A8FFF7E0FC14A926A0FFF7CCFC96
:1023C0002648007801281FD1002010210CAA4FF6C2
:1023D000FF73CDE9002102904FF607422C217820AF
:1023E000FFF7F0F90020102104AA4FF6FF73CDE9A2
:1023F000002102904FF607425C217820FFF7E2F9B6
:102400000B494878FFF756F802E015A0FFF7A4FC47
:1024100096E70000401901001A000020B3F5CABC7D
:10242000BBAFCDEAB3C90D0A0000000008000020D0
:10243000120000200C000020CEC2B6C83A2564B6B7
:10244000C8CAAAB6C83A256425255248000000002B
:102450002564000025730D0A000000000200002022
:10246000CEC2CAAAB6C8B6C1C8A1CAA7B0DC0D0AF6
:10247000000000000000000000000000000000005C
:10248000000000000000000000000000000000004C
:10249000000000000000000000000000000000003C
:1024A000000000000000000000000000000000002C
:1028F00000000000000000000000000808080808B0
:10290000080800001818000000486C24120000009D
:1029100000000000000000000000002424247F12BA
:1029200012127F12121200000000081C2A2A0A0C40
:102930001828282A2A1C0808000000222515151529
:102940002A585454542200000000000C1212120A9B
:1029500076252911916E0000000606040300000090
:1029600000000000000000000040201010080808CF
:102970000808081010204000000204080810101079
:1029800010101008080402000000000008086B1C6A
:102990001C6B080800000000000000000808080880
:1029A0007F08080808000000000000000000000088
:1029B0000000000006060403000000000000000004
:1029C000FE00000000000000000000000000000009
:1029D000000000000606000000008040402020109B
:1029E00010080804040202000000001824424242B9
:1029F0004242424224180000000000080E08080865
:102A000008080808083E00000000003C424242203E
:102A100020100804427E00000000003C42422018C2
:102A200020404042221C00000000002030282424C6
:102A300022227E20207800000000007E0202021A7E
:102A400026404042221C0000000000382402021AE6
:102A500026424242241800000000007E222210106C
:102A600008080808080800000000003C4242422410
:102A700018244242423C0000000000182442424216
:102A800064584040241C000000000000000018189A
:102A900000000000181800000000000000000008FE
:102AA0000000000000080804000000402010080496
:102AB00002040810204000000000000000007F0019
:102AC00000007F0000000000000000020408102049
:102AD00040201008040200000000003C4242464032
:102AE00020101000181800000000001C225A555534
:102AF00055552D42221C000000000008081814142F
:102B0000243C224242E700000000001F2222221E35
:102B100022424242221F00000000007C424201018A
:102B200001010142221C00000000001F224242421B
:102B300042424242221F00000000003F4212121E89
:102B400012120242423F00000000003F4212121ED9
:102B500012120202020700000000003C22220101C2
:102B600001712122221C0000000000E74242424283
:102B70007E42424242E700000000003E080808088A
:102B800008080808083E00000000007C1010101023
:102B9000101010101010110F0000007722120A0EF2
:102BA0000A1212222277000000000007020202022D
:102BB00002020202427F00000000007736363636FD
:102BC0002A2A2A2A2A6B0000000000E346464A4AC5
:102BD00052525262624700000000001C22414141F3
:102BE00041414141221C00000000003F424242425C
:102BF0003E020202020700000000001C2241414187
:102C000041414D53321C60000000003F4242423EB1
:102C10001212222242C700000000007C424202043D
:102C200018204042423E00000000007F490808088A
:102C300008080808081C0000000000E74242424261
:102C400042424242423C0000000000E7424222244D
:102C500024141418080800000000006B4949494971
:102C60005555362222220000000000E74224241895
:102C70001818242442E700000000007722221414D0
:102C800008080808081C00000000007E2120101021
:102C900008040442423F00000078080808080808B9
:102CA0000808080808087800000002020404080860
:102CB0000810102020204040001E1010101010108E
:102CC0001010101010101E0000384400000000000A
:102CD00000000000000000000000000000000000F4
:102CE00000000000000000FF0006080000000000D7
:102CF0000000000000000000000000000000003C98
:102D00004278444242FC0000000000030202021A22
:102D100026424242261A000000000000000000384F
:102D20004402020244380000000000604040407845
:102D30004442424264D80000000000000000003C11
:102D4000427E0202423C0000000000F08808087E3B
:102D500008080808083E0000000000000000007C91
:102D600022221C023C42423C000000030202023AC2
:102D70004642424242E700000000000C0C00000EF8
:102D800008080808083E0000000000303000003845
:102D9000202020202020221E0000000302020272B8
:102DA000120A1612227700000000000E0808080818
:102DB00008080808083E0000000000000000007F2E
:102DC0009292929292B70000000000000000003B37
:102DD0004642424242E70000000000000000003C82
:102DE00042424242423C0000000000000000001B42
:102DF00026424242221E0207000000000000007826
:102E000044424242447840E0000000000000007765
:102E10004C040404041F0000000000000000007CBB
:102E200042023C40423E0000000000000008083E14
:102E300008080808083000000000000000000063D7
:102E40004242424262DC000000000000000000E755
:102E5000422424140808000000000000000000EBD9
:102E6000494955552222000000000000000000766C
:102E700024181818246E000000000000000000E76D
:102E80004224241418080807000000000000007EF7
:102E900022100808447E000000C0202020202010BE
:102EA000202020202020C000101010101010101022
:102EB0001010101010101010000608080808081054
:102EC00008080808080806000C32C20000000000CC
:102ED0000000000000000000D4A40000F9FE08205B
:102EE000504021FC1104FD242524292421242124DF
:102EF000214420502088A1044202B6A8020001000B
:102F00007FFE4002800400003FF801000100110034
:102F100011F811001100290047FE8000CEC2000008
:102F200023F81208120883F84208420813F8100028
:102F300027FCE4A424A424A424A42FFE0000B6C8E3
:102F4000010000803FFE222022203FFC2220222080
:102F500023E020002FF02410422041C08630380E9C
:102F6000CAAA000027F81408140887F8440844087F
:102F700017F811202120E9242528233021202FFEB5
:102F80000000B8DF02000100FFFE00000FE0082093
:102F900008200FE000007FFC40044FE44824482450
:102FA0004FE4400CD6D001000100010001003FF8C1
:102FB000210821082108210821083FF821080100E3
:102FC000010001000100B5CD0808083C0BE012200B
:102FD00012203220322053FE9220121012101212B0
:102FE000120A128A13261212CBD90040204017FC75
:102FF000104003F80248F24813F810E0115012484C
:1030000014441040280047FE0000B7E700003FF0DE
:10301000201020102850245022902290211021109E
:1030200022902292244A484A40068002A1E660008B
:1030300091F4960C6C04080418001800180018008D
:103040001800180008000C04060801F00000C9E38D
:10305000100013FC110811F8FD0811F8110E17F8F3
:10306000180837BCD0A412A41128129054A82846DE
:10307000CACF001000F83F802080208020803FFED3
:10308000208020802040204020222012280A300664
:103090002002250000000044A4A8A8B0541A2A2A3F
:1030A0004A44000000000000000000000000000092
:1030B000000000003A0000000000000018180000A6
:1030C00000001818000000000000000000000000D0
:1030D000000000000000B5E70100010001003FF81A
:1030E0002108210821083FF82108210821083FF87C
:1030F000210A0102010200FEBBFA100011F01110BA
:103100001110FD101110311039105510551091107B
:10311000111211121212120E1400100011F82108CF
:1031200021084908F9F8110821084108F9F841086F
:1031300001081908E10847FE0000000000001FF028
:10314000101010101FF000003FF820082008210880
:103150002108210802C004301808E0040000E3C67A
:10316000200017FC000440045FF4400440044004C5
:103170004FE44004400440045FF44004401440081D
:10318000C5F400107720557C554455647754554458
:10319000554C5540777E55025502557AB502890A3D
:1031A0001304CAAF0000FFFE020002000400040086
:1031B00008000FF8180828084808880808080808B0
:1031C0000FF80808C6F00800080008F87E0808088C
:1031D0000808FEF80888288028802E842884287C07
:1031E00058004FFE8000B3AC080009FC08447E4440
:1031F00008440894FF0808FC288428842E8428FCAE
:10320000280058004FFE8000C1F51004080408048F
:10321000FFA4022442242224142414240824082471
:1032200014242404420482140008C1BC02000100DA
:103230003FF0201020103FF0201020103FF0220817
:10324000211020A02040242028183006E7E60000A6
:103250000000FDFE1008100811E811287D28112833
:10326000112811E811281C08E00840280010D5C5D5
:103270000100F9080908091009207940410047FEBA
:103280004140792009200910090809445182210090
:10329000D3F100007FFC01000100010001000100EA
:1032A0003FF8010001000120011001100100FFFEA4
:1032B0000000BAC001007FFC00001FF010101FF0DA
:1032C00000007FFE40029FF40600192006C039B0BE
:1032D000068C3980B7B604400440FFFE044010005D
:1032E00009F849082108250805280910710211026A
:1032F000110210FE0000C5E01040102011FC10006B
:103300001108FC90100013FE1000100011FC1D04A9
:10331000E104410401FC0104B6B01040104010402B
:1033200017FEF880112031203A2057FC50209128B8
:1033300011241222142210A01040D5C50100F90852
:103340000908091009207940410047FE41407920D1
:10335000092009100908094451822100D5FD000007
:103360007FFC0100010001000100110011F81100B3
:1033700011001100110011001100FFFE0000BDF04E
:103380000100010002800440082010102FE8C1064F
:1033900001003FF80100111009100920FFFE000094
:1033A000CCEF00003FF8210821082108210821085E
:1033B0003FF8210821082108210821083FF82008AA
:1033C0000000B0D810201020104011FCFD041104A2
:1033D0003104390455FC55049104110411041104FD
:1033E00011FC1104B7AB100011F011107D10551035
:1033F0005510559055505550551055105D121112DD
:103400001212120E1400C0EE010001007FFC0380B6
:10341000054009203118C1060FE000400080FFFE82
:103420000100010005000200CEB00840084008403D
:1034300017FE1040304033FC5040904017FE1042C1
:103440001042104A104410401040B5C210401040C5
:103450002FFE404097FC14A424A467FCA0002FFE7C
:10346000204020242522250A290820F8A3AC0000AA
:10347000000000000000000000000000000000004C
:103480000000000030003000100020000000BAE30F
:10349000100013FE1000100019FC5504510451FCDB
:1034A0009104110411FC11041000100013FE10000F
:1034B000BFD810401020102013FEFA0214941108F7
:1034C0001A043000D1FC102010201020102057FECC
:1034D0002000D6C60404240424043FA44424042465
:1034E000FFE4042404243FA424A424A42684250463
:1034F00004140408B9DC20403F7E48908508010090
:103500007FFE40029FE410201FE010001FF010100B
:1035100010101FF01010C0ED000001FCFD2411245C
:1035200011FC112411247DFC1020102011FC10200E
:103530001C20E02043FE0000CFB500F83F0004004F
:10354000082010403F800100061018087FFC01048D
:1035500009201110210845040200CDB310401020AD
:10356000202023FE4840F888110423FE4092F89062
:10357000409000901912E112420E0400C9EE0000C2
:10358000000000001000000800080C7FFC04401040
:1035900001C8A002186042301832231812C3001468
:1035A000030004030C047FF0080F80080B4078131D
:1035B0006018332018631818831C190308180300B7
:1035C000000300000000D7D6000000000006000045
:1035D000000300000000C0000001C0C0000107C0DF
:1035E0000001FF00021FFE0007F01C0007C0700072
:1035F0000F00E0000E03F0001C0FF0003C0F700005
:103600003C00E0001800C0000000C0000000C00046
:103610000000600000002000000037000001FF00F3
:10362000007FF80007F830001F8030000080300075
:1036300000C03000006060000018E000000FC00013
:103640000006000000000000FFFEFFFEFFDDE6D8E0
:10365000CE35BDB2C5B2C5D3C5B3C5B3C5B3CDD3E1
:10366000C5B3C5B2C5D2C5D2C5D2C5D3C5B3C5B31E
:10367000C5D3C5B3C5D3C5D2C5D2C5D2C5D3C5D3AD
:10368000C5D3C5D3C5B3C5B3C5D3BDB3C5B3CE3597
:10369000E6D9FFFDFFFEFFFFFFFEFFDDBD93BD93FB
:1036A000C5D3C5B2CDD3C5B2C5B2CDD3C5B3C5920E
:1036B000C5B3C5D3C5D2C5F3C5B2BDB2C5B3C5D3B5
:1036C000C5B3C5B3C5B2C5D2C5D2C5D2C5D3C5D39E
:1036D000C5D3C5D3C5B3C5B3BD92C5D3C5D3BDB3DB
:1036E000B593BDB4FFDDFFDDFFFDBD93BDB3C5D414
:1036F000BD92C5F3C5B2C5D2C5B2C5D3CDD3C5D36E
:10370000C5B3C5D3C5B2BDB2CDF3C5D3C5B3C5B27C
:10371000C593C5D3CDD3C5B2C5D3C5D3C5D3C5D342
:10372000C5D3C5D3C5B3C5B2C5D2C5B2C5D3BD9285
:10373000C5F4BDB3BD94FFFDE6F8B572C5F4BDB3E5
:10374000CE14C5B3C5B2C5D2CDF3BD91C5B2C5D3F4
:10375000C5B3BDB2C5B3C5D3BDB2C5B2C5D3C5B37C
:10376000C5B3C5B3C5B3C5B3C5D3C5D3C5D3C5D319
:10377000C5D3C5D2C5B2C5B2CDD3C5B2C5B2CE14BC
:10378000C5D3C5D3B592E6F8CE35BD92C5D3BDB38A
:10379000C5B3C5B3C5B2C5D2C5B2C5D2C5D2C5D2EF
:1037A000C5D3C5D3BDB3C5D3C5D3C5D2C5D3C5D382
:1037B000C5D3C5B3C592C5D3C5D3C5D3C5D3C5D3AA
:1037C000C5D2C5D2C5B2C5B2C5B2C5B2C5B2BD9229
:1037D000C5B2C5D3BDB2CE34C5D3C5D3C5D3C5F3E9
:1037E000C5D3BDB2C5D3C5D2C5D2C5D2BDB2BDD376
:1037F000BDD3B592BD93BDB3BDB3C5D3C5D3BDB223
:10380000C5B2C5D3C5B2C5B3C5D3C5D3C5D3C5D25B
:10381000C5D2C5D2C5B2C5B2C5D2C5D2C5B2C5B270
:10382000CDF3C5B2C5D3BDB2C5B2C5D3C5D3BD9264
:10383000C5B2C5D3CDF4BD92BDB2C5F3BDB3BD9283
:10384000C5D3D696E6D8CE15BDB3BD92C5D3C5D3E4
:10385000C592C5D3C5B3C5B3C5D3C5D3C5D3C5D22A
:10386000C5D2C5D2C5B2C5B2C5B2CDD3C5D3C5B315
:10387000C5B3C5B3C5B2C5B2C5B3C5B2C5D2C5D34C
:10388000C5D2C5B2C5B3C5D3C5F3BDB2BD93E6D8E5
:10389000FFFCFFFCFFFDFFFDF75AC5D4BD92C5D369
:1038A000C5D2C5D2C5D3C5D3C5D3C5D3C5D2C5D25C
:1038B000C5D2C5D2C5B2C5B3C5D3C593C5D3C5920C
:1038C000C5D3C5D3C5B2C5B2C5B3C5B3C5D2C5D2BC
:1038D000C5D2C5D2C5D3C5D3C5D3BD92DEB8FFFD11
:1038E000E719B593BD94D677FFFDF75BB592C5F3A5
:1038F000BDB2C5D2C5D3C5D2C5D3C5D2C5D2C5D236
:10390000C5B2C5D3C5B3C5B3C5D3C5D3C5D3C5D358
:10391000C5D3C5D3C5D3C5D3C5B3C5B3C5D2C5D229
:10392000C5D2C5D2C5D3C5D3C5D3B572FFDEF77C2A
:10393000B573BDB4BDB4AD33DEB9FFFECE15BD92D7
:10394000C5F3C5D2BDB2C5B2C5D2BDB2C5D2C5D20E
:10395000C5D3C5B2BD92CDD4C5D3C5D3C5D3C5D308
:10396000C5D3C5D3C5D3C5D2C5B3C5B3C5D2C5D2DA
:10397000C5D2C5D2C5D3C5D3C5D3AD31FFFEDEB9DF
:10398000B573CE35CE56D698D678FFFED676BDB373
:10399000C5D2BDB1C5F3C5D3C5D3BDB2C5D2BDB2C5
:1039A000C5B2C5D3C5D3C5B3C5D3C5D3C5D3C5D299
:1039B000C5D2C5D2C5D2C5D2C5B3C5B3C5D2C5D28D
:1039C000C5D2C5D2C5D3C5D3C5D3AD31FFFEE6DA66
:1039D000AD52E718FFFDFFFEFFFEFFFECE56BDB362
:1039E000C5D3C5D2C5B2C5B3C5B3C5F3C5D2C5F33A
:1039F000C5D2C5B2C5B3C5B3C5D3C5D2C5D2C5D26C
:103A0000C5D2C5D2C5D2C5D2C5B3C5D3C5D2C5D21C
:103A1000C5D2C5D3C5D3C5D3C5D3B551FFFEE6DAEC
:103A2000B593B572BDD5B594BDB5FFFED656B5926A
:103A3000C5F3C5D3C5D3C5B3BD93C5F4C5B3BDB236
:103A4000C5D2C5F3C5D3C5F4C5B2C5D2C5D2C5D29A
:103A5000C5D2C5D2C5D2C5D2C5D3C5D3C5D2C5D2AC
:103A6000C5D2C5D3C5D3C5D3BDB2B551FFDDE6DAE6
:103A7000B572DED7FFDDFFFEFFDEFFFED677BDB3FA
:103A8000BDD3C5D3BD93CDF5C5F5BD73C5D3C5D3E2
:103A9000C5D2BDB2C5B3C5B2C5B2C5D2C5B2C5B235
:103AA000C5B2C5B2C5B2C5B2C5D3C5D2C5D2C5D2DD
:103AB000C5D3C5D3C5D3C5D3C5F2AD50FFFDDEB95F
:103AC000B571CE55EF5BE6FAE71BFFFECE56B59219
:103AD000BDD3BDB3E6F9FFFDFFFEDE98B592C5D3B9
:103AE000C5F3C5D2C5D3C5D3C5B3C5B2C5B3C5B378
:103AF000C5B3C5B3C5B3C5B3C5D2C5D2C5D2C5D28A
:103B0000C5D3C5D3C5D3C5D3BDD2AD50FFFDDEB936
:103B1000B592C5F3CE36C616C637FFFECE56BDB338
:103B2000BDD3C5D3FFFDDE98EF1AFFDDC5F4BDB3ED
:103B3000B572B571BD92C5B3C5B3C5B3C5B3C5B391
:103B4000C5B3C5B3C5B3C5B3C5D2C5D2C5B2C5D358
:103B5000C5B3C5B3C5D4C5D3C5D2AD50FFFDE6D9F5
:103B6000B552E6F8FFFDFFFDFFFEFFFECE56BDB2EB
:103B7000BDD2BDD2FFDCFFBDFFBEFF9DB573CE360B
:103B8000EF5AF77BE6B9C594C5B3C5D3C5D3C5B362
:103B9000C5D3C5D3C5B2C5B2C5B2C5D3C5D3C5D3C8
:103BA000C5B3C5D3C5B3BDD3BDD2AD50FFFDDEB9DE
:103BB000BD93BD93BDB3BDD4BDD5FFFED657BD9259
:103BC000C5F3BDB2D676F75BF73CC5F6F75BFFFDF4
:103BD000FFDDF77CFFBDFFFDD656BD92C5B3C5B373
:103BE000C5B3C5B3C5B2C5D2C5D3C5D3C5D3C5D377
:103BF000C5B2C5D3BDB2C5D3C5F3AD51FFDDE6FA3D
:103C0000BD93C5F3C5D3BDB3BDD5FFFED657B573C0
:103C1000C5F3BDD2B592BDD4AD32FFBCFFFDC636F3
:103C2000BDB3BDB3BD93F75AFFFCCDF4BDB3BDB377
:103C3000C5D3C5B3C5B2C5B2C5D3C5B3C5D3C5D346
:103C4000C5B2C5D2C5D3C5D3BDB3A4F1FFFEE6D975
:103C5000B572BDD3C5F3BDB3C5D5FFFEC616BDB4A1
:103C6000BDB3BDD2C5F3BD92CE36FFDDD697B593B9
:103C7000BDD3BDD3BDB3BD92FF7ACE14C5D3BDB302
:103C8000C5D3C5D3C5D3C5D3C5B3C5B3C5B2C5D2D6
:103C9000C5D2C5D2C5F3BD92BD93E6D9FFFDDEB84E
:103CA000BDB2BDB2C5D3C5B3C5D5FFDEFF9CBDB3A4
:103CB000C5D3C5D3C5B3BD92E6F9FFFEBDF5BDD3EF
:103CC000C5D2BDD2C5D3C5F4B551BD92C5D3C5D3F8
:103CD000C5D3C5D3C5D3C5D3C5B3C5D3C5B2C5D266
:103CE000C5D2C5D2C5D2BD92EF1AFFDDE6F9BDB38C
:103CF000C5B2C5F2BDB2C5B3BD93D657FFFDFFFD3A
:103D0000B552C5D3C5D3BDB3DED8FFFEBDD5BDD436
:103D1000BDB2C5F2BDD3B572C5D3C5D3C5B3C5D386
:103D2000C5D3C5D3C5B2C5D3C5B3C5D3C5B2C5D236
:103D3000C5D2C5D2BD92DE76FFFDE6D9B552C5D358
:103D4000C5D2C5F2C5B2C5D3BDB3BDB3C615FFFD5F
:103D5000EF1ABD93BDB3BDB3BDD4FFFDE6D9B553D6
:103D6000BDD3BDB2BDB3C5F4FFDBCE35BDB2C5D347
:103D7000C5D3C5B3C5B3C5D3C5B3C5D3C5B2C5F3E4
:103D8000C5D2C5D3BD93FFBCFF9CB573C5D4BDB32D
:103D9000C5D2C5B2CDF3C592C5D2C5D3B573E6D8E9
:103DA000FFFECDF5C5B3C5D3B592EF19FFFEEF1AEF
:103DB000C5D4C5D4CE36FFDCFFFCC5F3C5B3C5D32F
:103DC000BDB2C5B3C5F3C5B2C5B3C5F3C5D2C5D27F
:103DD000C5D2C5B2C5B4FFFED677B573BDD3C5F3A2
:103DE000C5B2C5B2C5D3C5B2C5F2BDD2C5B3BD73E8
:103DF000FFDEE6B9BD93C5D3BDD3BD93E6D8FFFDC5
:103E0000FFFDFFFDFFFDFFDDC5D3C5D3C5D3C5D382
:103E1000C5D3C5D3C5D3C5D3C5B3C5B2BD91C5F24E
:103E2000C5F2BDB3D658FFDEBDB4C5D3BDB2C5D350
:103E3000C5F3C5D2C5B3C5B2BDB1C5D2C5D3B532C0
:103E4000FFDDF77CBD93BDD3BDB2C5F3B572B572CE
:103E5000DE97DED8C5D5B573C5D3C5D3C5D3C5D315
:103E6000C5D3C5D3C5D3C5D3C5B2C5D3C5D2C5D2B5
:103E7000BDB2BD92DE99FFFFC5F4BDB2BDB2BDD2E9
:103E8000C5B2C5D2C5B3C5D3C5F3C5F2C5B2B53148
:103E9000FFFDF79CB573BDD3C5D2C5D2C5D2C5D27F
:103EA000BDD2BDB2BD93C5B4C5D3C5D3C5D3C5D3EB
:103EB000C5B3C5B3C5D3C5D3C5B2C5B2C5D3BDB2ED
:103EC000C5D2C5B3CDF6FFDEC615BDB3C5D3C5D3C8
:103ED000C5D2C5D3CDD3C5D3BDB2C5B2C5D3B552F6
:103EE000FFFDEF5AB572BDD3C5D2C5B1C5D2C5D29B
:103EF000C5D2BDD3C5D3C5D3C5D3C5D3C5D3C5D30B
:103F0000C5B3C5B3C5D3C5D3C5D2BDB2C5D3C5D35B
:103F1000C5D2BDB2BD94FFFEF79BB571BDD3C5F34D
:103F2000BDB2C5D3C5B3C5B3C5D3BDD3BD93D677D5
:103F3000FFDDCE36BDD3C5D2C5D2CDF2C5D2C5B216
:103F4000C5B2C5D2C5B2C5D3C5B2C5B2C5D3C5D336
:103F5000C5D3C5D3C5B2C5B2C5D2C5D2C5D3C5F3C5
:103F6000BDB2BDB2BDB4EF1AFFFDC5F4BDB3BDD344
:103F7000BDD3C5D3C5B3C5D4C5D3BDD3BD94FF9CF4
:103F8000FFFDBDD3BDB2C5D2C5D2C592C5B2CDD29B
:103F9000C5B2C5B2C5D3C5D3C5B2C5B2C5D3C5D3E5
:103FA000C5D3C5D3C5B2C5B2C5B2C5B2C5B3C5D3F5
:103FB000C5D2C5F3BDB3B573FFBCFFFDC614B57163
:103FC000C5D3C5B3C5D3BD72B552C5D4FFBDFFFEC1
:103FD000C614BD92C5D3C5D3C5B3C5D3C5B3C5B289
:103FE000CDD3CDD3C5B3C5B3C5B2C5D2C5D2C5D265
:103FF000C5D3C5D3C5B2C5B2C5D3C5D3C5D3C5B363
:10400000C5D2C5D2BDB3BDB3C5D5FFBCFFFDEF5909
:10401000C5F4BDB3BD93CDF5E6D8FFFDFFFDD6B821
:10402000B592C5D3C5D3C5B3C5D4C5B3C5B3C5D380
:10403000C5B2C5B2C5D3C5D3C5B3C5B2C5D3C5D343
:10404000C5D3C5D3C5B2C5B2C5B2C5D3C5D3C5D214
:10405000BDB2CDF3BD92C5D4BDB4BDB4E6F8FFFD8D
:10406000FFFDFFFDFFFEFFFDFFFDEF39CE35BDB3C8
:10407000BDB3C5D3C5D3C5B2C5D3C5B3C5D3C5D2EA
:10408000C5B2C5D2C5D3C5B3C5D3C5B3C5D3C5B2F3
:10409000C5B2C5D3C5D3C5B3C5B3C5B3C5B2BDB22B
:1040A000C5F3C5D2C5F3C5B3C5B3BD93BD93BDB309
:1040B000CE36E6F9E6FAD677BDB3BDB3BDB3BDB330
:1040C000C5D3C5D3C5D3C5B2C5D3C5D3C5D2C5D253
:1040D000C5D2C5D2C5D2C5B2BDB3CDF4C5B3C5D363
:1040E000C5B2BDB2C5B3C5D3C5B3C5B3C5D2C5F39B
:1040F000C5F2BDB2C5B2C5D3C5B3C5D3C5F3C5B34B
:10410000BDB3BD93B573B593C5D4C5D3C5F3C5D3FE
:10411000C5D3C5D3C5B2C5B2C5D3C5D3C5D2C5D223
:10412000C5D2C5D2C5D2C5D2C5D3C5B2C5D2C5D2F6
:10413000C5F3C5D3BDB2C5D3CE15C5D3BDB2C5D2A7
:10414000BDB1C5D2C5D2C5B2C5D2C5D2C5D2BDB228
:10415000C5D2C5D3BDD3C5F4BDD3BDB3BDB3BDB307
:10416000C5B3C5D3C5D3C5D3C5D3C5D3C5D2C5D2B1
:10417000C5D2C5D2C5D2C5D2BD92C5F3C5D2BDB2D6
:10418000BDB2C5F3C5D3CE14E6F9B572C5D3C5B279
:10419000C5F3C5D2BD92C5F3C5B2C5D2C5D2C5D28D
:1041A000C5D2C5D2C5D3BDB2C5D3C5D3C5D3C5D37A
:1041B000C5D3C5B3C5B2C5D3C5D3C5D3C5D3C5D380
:1041C000C5D3C5D3C5D3C5B2C5D3BDB2C5D2C5F35A
:1041D000BD92C614B572E6F8FFFEBD94BD93C5F45A
:1041E000BDB2C5D2C5D3C5D2C5F3C5B2BDB1C5D266
:1041F000C5D2C5D2C5F3C5D3C5D3C5D3C5D3C5B301
:10420000C5B3C5B3C5D3C5D3C5D3C5D3C5D3C5D32E
:10421000C5D3C5D3C5D3C5B2C5D3C5D2C5D2BD924A
:10422000C5F3BDB3BDB4FFFDFFFEFFBDBDB4B59387
:10423000BDD3C5D3C5D3BDB2BDB2C5D3C5D3C5D219
:10424000C5D2C5B2C5D3C5B3C5D3C5B3C5B3C5B350
:10425000C5D3C5D3C5D3C5B2C5D3C5D3C5D3C5D3BF
:10426000C5D3C5D3C5D3C5D3C5B2C5D3C5D3C5D3AF
:10427000BD92BDB4FFDDFFFEFFFFFFFEFFDDE6F9EF
:10428000C614C5D3C5B3C5D3C5D3C5D3BDB2C5D276
:10429000C5D3C5B2C5B3C5B3C5D3C5D3C5D3C5D3BF
:1042A000C5B2C5B2C5D3C5D3C5D3C5D3C5D3C5D390
:1042B000C5D3C5D3C5D3C5D3C5D3C5B3BDB3CE351B
:1042C000E6D8FFDDFFFEFFFFFFFFFFFFFFFFFFFF61
:1042D000FFFFFFFFFFFFFFFFFFFFFFFFFFFFFFFFEE
:1042E000FFFFFFFFFFFFFFFFFFFFFFFFFFDFFFFFFE
:1042F000FFFFFFFFFFFFFFFFFFFFFFDFFFFFFFFFEE
:10430000FFFFFFFFFFFFFFFFFFFFFFFFFFFFFFFFBD
:10431000FFFFFFFFFFFFFFFFFFFFFFFFFFFFFFFFAD
:10432000FFFFFFFFFFFFFFFFFFFFFFFFFFFFFFFF9D
:10433000FFFFFFDFFFFFFFFFFFFFFFFFFFFFFFFFAD
:10434000FFFFFFDFFFFFFFFFFFFFFFFFFFFFFFFF9D
:10435000FFFFFFFFFFFFFFFFFFFFFFFFFFFFFFFF6D
:10436000FFFFFFFFFFFFFFFFFFFFFFFFFFFFFFFF5D
:10437000FFFFFFFFFFFFFFFFFFFFFFFFFFFFFFFF4D
:10438000FFFFFFFFFFDFFFFFFFFFFFFFFFFFFFDF7D
:10439000FFFFFFFFFFFFA534F79EFFFFFFDFFFFFDB
:1043A000FFFFFFDFFFFFFFDFFFFFFFFFFFFFFFFF5D
:1043B000FFFFFFFFFFFFFFFFFFFFFFFFFFFFFFFF0D
:1043C000FFFFFFFFFFFFFFFFFFFFFFFFFFFFFFFFFD
:1043D000FFFFFFFFFFFFFFFFFFFFFFFFFFFFFFFFED
:1043E000FFFFFFDF6B4D00001082FFFFFFFFFFDFCD
:1043F000FFFFFFFFFFDFFFFFFFFFFFFFFFFFFFFFED
:10440000FFFFFFFFFFFFFFFFFFFFFFFFFFFFFFFFBC
:10441000FFFFFFFFFFFFFFFFFFFFFFFFFFFFFFFFAC
:10442000FFFFFFFFFFFFFFFFFFFFFFFFFFFFFFFF9C
:10443000FFFFB5B6002018E30020528AFFFFFFFF00
:10444000FFFFF7BEFFFFFFFFFFFFFFFFFFFFFFFFC5
:10445000FFFFFFFFFFFFFFFFFFFFFFFFFFFFFFFF6C
:10446000FFFFFFFFFFFFFFFFFFFFFFDFFFFFFFFF7C
:10447000FFFFFFFFFFFFFFFFFFDFFFFFFFFFFFFF6C
:10448000E71C0020086110A210A200008410FFFFAA
:10449000FFDFFFFFFFFFFFDFFFFFFFFFFFFFFFFF6C
:1044A000FFFFFFFFFFFFFFFFFFFFFFFFFFFFFFFF1C
:1044B000FFFFFFFFFFFFFFFFFFFFFFFFFFFFFFFF0C
:1044C000FFFFFFFFFFFFFFDFFFFFFFDFFFFFFFFF3C
:1044D00018E308410020E73C4A6910820000BDF75C
:1044E000FFFFFFFFFFDFFFFFFFFFFFFFFFFFFFFFFC
:1044F000FFFFFFFFFFFFFFFFFFFFFFFFFFFFFFFFCC
:10450000FFFFFFFFFFFFFFFFFFFFFFFFFFFFFFFFBB
:10451000738E7BEFFFFFFFFFFFFFFFFFFFFF7BCFF0
:10452000000000209CF3FFFFFFFF002008610861EE
:10453000FFDFFFFFFFFFFFFFFFFFFFFFFFFFFFFFAB
:10454000FFFFFFFFFFFFFFFFFFFFFFFFFFFFFFFF7B
:10455000FFDFFFFFFFFFFFFFFFFFFFFFFFFF73AE68
:10456000000000007BCFFFFFFFFFFFFFC618000029
:1045700000204A69FFFFFFFFFFFFCE5908410841B5
:1045800039C7FFFFFFDFFFFFFFFFFFFFFFFFFFFF59
:10459000FFFFFFFFFFFFFFFFFFFFFFFFFFFFFFFF2B
:1045A000FFFFFFFFFFFFFFFFFFFFFFFFCE790020B0
:1045B00010A210A20000CE59FFFFFFFF18C3086130
:1045C0001082F79EFFDFFFFFFFFFFFFF8C710020CF
:1045D0000861FFDFFFFFFFDFFFFFFFFFFFFFFFFFC0
:1045E000FFFFFFFFFFFFFFFFFFFFFFFFFFFFFFFFDB
:1045F000FFFFFFFFFFFFFFDFFFFFFFFF000008617E
:104600003186296508410841EF7D5AEB08410000D9
:10461000CE79FFFFFFFFFFFFFFDFFFFFFFFFCE5958
:10462000FFDFFFFFFFFFFFFFFFFFFFFFFFFFFFFFBA
:10463000FFFFFFFFFFFFFFFFFFFFFFFFFFFFFFFF8A
:10464000FFFFFFDFFFFFFFFFFFFF4A690861002058
:10465000D69AD6BA08410861318610A200005AEBFA
:10466000FFFFFFDFFFFFFFDFFFFFFFFFFFDFFFFFBA
:10467000FFFFFFFFFFFFFFFFFFFFFFFFFFFFFFFF4A
:10468000FFFFFFFFFFFFFFFFFFFFFFFFFFFFFFFF3A
:10469000FFFFFFFFFFFFFFFF94B2000000007BEF72
:1046A000FFFFFFDFB5B6000010A210A210A2FFFFAF
:1046B000FFFFFFFFFFDFFFFFFFDFFFFFFFDFFFFF6A
:1046C000FFFFFFFFFFFFFFFFFFFFFFFFFFDFFFFF1A
:1046D000FFFFFFFFFFFFFFFFFFFFFFFFFFFFFFFFEA
:1046E000FFFFFFFFFFFFEF5D0000108231A6FFFF1D
:1046F000FFFFFFFFFFFF528A08610000BDD7FFDF09
:10470000FFDFFFFFFFFFFFDFFFFFFFFFFFFFFFFFF9
:10471000FFFFFFDFFFFFFFFFFFFFFFFFFFFFFFFFC9
:10472000FFFFFFFFFFFFFFFFFFFFFFFFFFFFFFFF99
:10473000FFFFFFFFFFFF39E710820000F7BEFFFF1A
:10474000FFFFFFDFFFFF000008614208FFFFFFFFE0
:10475000FFFFFFFFFFDFFFFFFFDFFFFFFFDFFFFFC9
:10476000FFFFFFFFFFFFFFFFFFFFFFFFFFFFFFFF59
:10477000FFFFFFFFFFFFFFFFFFFFFFFFFFDFFFFF69
:10478000FFFFFFFFA514000000008C71FFFFFFFF7B
:10479000FFFFFFFF4A4808610040E75DFFFFFFFFA2
:1047A000FFFFFFFFFFFFFFFFFFFFFFFFFFFFFFFF19
:1047B000FFFFFFFFFFFF9CF3000094B2FFFFFFFF2E
:1047C000FFFFFFFFFFFFFFFFFFFFFFFFFFFFFFDF19
:1047D000FFFFFFBE18C310822945FFFFFFFFFFDF69
:1047E000FFDFE6BB002000406BEEF7FFF7FFFFFFA7
:1047F000FFFFFFFFFFDFFFFFFFFFFFFFF7FFFFFFF1
:10480000FFFFFFFFFFFF4229002110A2EF5DFFFF26
:10481000F7DFFFFFFFDFFFFFFFFFFFFFFFFFFFFFF0
:10482000FFDF7B8E00200000CE7AFFFFFFFFFFFF3F
:10483000FFFF41E700810143AF5A9EF8A6F8B75A3F
:10484000DFFEEFFFF7FFFFFFF7FFFFFFFFFFFFFFB9
:10485000FFFFFFFFFFFFEF3D00000000736DFFFF54
:10486000FFFFFFFFFFDFFFDFFFFFFFFFFFDFFFFFB8
:10487000FFFF0000086152AAFFFFFFFFFFFFFFFFDD
:10488000D679004000C11B082D0E150D14ED1CCD6E
:104890002CCD7E75DFFEEFFFFFFFFFFFFFDFFFFF89
:1048A000FFFFFFFFFFFFFFFF6B0C10820000FFFF09
:1048B000FFFFFFFFFFDFFFFFFFFFFFFFFFFFFFFF28
:1048C0007BAE08410000DEDBFFFFFFFFFFFFFFFFC5
:1048D0006B6D008000C03D2F154D058D056D058D5C
:1048E0000D2D14AC3CCEAF7AE7FFF7FFFFFFFFFFC3
:1048F000FFDFFFFFFFDFFFFFEF3C082100206B8E93
:10490000F7FFFFFFFFFFFFDFFFFFFFFFFFDFEF7D91
:1049100018A208215AAAFFDFFFFFFFDFFFFFFFFFFA
:10492000004000C10B07254E054C05AD058D056CFB
:10493000058D0D6D154D148C55B2C7FDE7FFF7FFC2
:10494000FFFFFFFFFFFFFFFFFFFF52AA004018E33A
:10495000EF7DFFFFFFFFFFFFFFFFFFDFFFFFBDB6A4
:1049600000200000CE59FFFFFFDFFFFFFFDFC6176B
:10497000002001221C6C156D0DAD056C05CD05AD3B
:10498000058D056C058D054D0CCC350E8EF7D7FECB
:10499000E7FFE7FFEFFFEFFFEFFFBE9900200020EA
:1049A000BE38FFFFFFDFFFFFFFFFF7DFFFFF528A89
:1049B000000039C7FFBFFFFFFFFFFFFFFFFF5AEBFC
:1049C00000810183254E058D058D05AD058D056C96
:1049D000058D0DCE056C058D0D8D156E0CCC24CD81
:1049E0006E958717A7BABFFDCFFEDFFE21E6002038
:1049F000636DFFDEFFFFFFFFF7DFFFFFFFFF18C361
:104A000008615B0CFFFFFFFFFFFFFFDFFFFF31A52A
:104A100000A10A25258F05AD05AD058D058C0DADD1
:104A2000056C056C05AD058D058C056D0D8D0D4D69
:104A30000CEC14ED1CED24CD2CCD44AE1A0600A1D7
:104A40002144FFFFFFFFFFDFFFFFFFFFFFFF18C352
:104A500000416B4DFFFFFFFFFFFFFFFFFFFF2985B9
:104A600000810A661D8E058D058D058D058D058DD0
:104A7000058D05AD058D058C05AD056D056D0D6DBF
:104A80000D8D0D6D0D6D0D6D152D3D4F1A8700A10E
:104A900010C2FFFFFFFFFFDFFFDFFFFFFFFF21244B
:104AA00000415AEBFFFFFFFFFFFFF7BEFFFF31C6DC
:104AB00000A102041D2D058D058D056C058D058D4C
:104AC000058D058D058D058D056C058D058D056C98
:104AD000056C058D05AD058D056D2D4E1A8700A160
:104AE0002144FFFFF7BEFFFFFFFFFFFFFFDF5AEB91
:104AF000000039C7FFFFFFFFFFFFFFFFFFDF4A890D
:104B0000008101A31CAC0D6D058D05AD05AD058DB6
:104B1000058D058D05AD058D058C058D05AD058DC6
:104B2000058C058D05AD05AD058D254F0A25004089
:104B30004248FFFFFFFFFFFFFFFFFFFFFFFFBDD763
:104B400000000000D6BAFFFFFFFFFFDFFFFF8C92DF
:104B5000002001421C0B04AB058D058D058C058DD5
:104B600005AD058D058D058D05AD058D058C05AD56
:104B700005AD058C058D058D0D6D24EE01420020DF
:104B80008C71FFFFFFFFFFFFFFFFFFFFFFFFF79E9F
:104B900018E308613186FFFFFFFFFFDFFFFFEF5DD6
:104BA000002001021B281C8C04CB054C058D058DB3
:104BB000056C058C05AD05AD05AD05AD058D058D07
:104BC000058D058D058D054C254E1BCA00C10000C5
:104BD000D6BAFFFFFFFFFFFFFFFFFFDFFFFFFFFF73
:104BE0009472000008418430FFFFFFFFFFFFFFFFCA
:104BF000296500A101423CAE0C8B050C0D6D056DC5
:104C0000058D058D05AD05AD058D058D058D058DD4
:104C1000058D058D058D156E3D2F01A300C13185D4
:104C2000FFFFFFFFFFFFFFFFFFFFFFFFFFFFFFFF94
:104C3000FFDF3166084100006B4DFFFFFFFFFFFF04
:104C4000BDD6004000E112C7248C04AA04AA052C9A
:104C50000DAD05AD058D056C058D058D058D058D9D
:104C6000058D058D0D6D252E1B2801010020CE38E8
:104C7000FFFFFFFFFFFFFFFFFFFFFFFFFFFFFFFF44
:104C8000FFFFFFDF31A60020002121049CF3F79EE7
:104C9000FFFF3A28008001421B691C6B14CC04AA58
:104CA00004AA054C0D8D056D056D0D8D058D054D09
:104CB0000D4D1D6E1D2D2C6C00E100602985FFFF40
:104CC000FFFFFFFFFFFFFFFFFFFFFFFFFFFFFFFFF4
:104CD000FFFFFFFFFFFF5ACB00000841000000006C
:104CE00018E3294510C2090201011B072CAD148BE2
:104CF00004CB04CA04AA050C052C052C0D6D156DFA
:104D00001D0D3D70238A010100C110A2EF9DFFFF20
:104D1000FFFFFFFFFFFFFFFFFFFFFFFFFFFFFFFFA3
:104D2000FFFFFFFFFFFFFFFFCE7939E70861084172
:104D3000000000200000002000A10101022523EB5B
:104D40001C8C148B14AC0C8B0C8B14CC148B1CACE7
:104D5000240B024500C000A10040DF1CFFFFFFFF45
:104D6000FFDFFFDFFFFFFFFFFFFFFFFFFFFFFFFF93
:104D7000FFFFFFFFFFDFFFFFFFFFFFFFD69AAD55ED
:104D8000A5149CD3A534BDF710E2002000C100E1BA
:104D900012451B082BEB2C4C348D23CA12E70A2535
:104DA000010100C1002008A1E75DFFFFFFFFFFFF39
:104DB000FFFFFFFFFFFFFFFFFFFFFFFFFFFFFFFF03
:104DC000FFFFFFFFFFFFFFFFFFDFFFFFFFFFFFFF13
:104DD000FFFFFFFFFFFFFFFFFFFF7BEE08610020EB
:104DE00000A100C100C0010100E000E100E200A15B
:104DF000004000407BEFFFFFFFFFFFFFFFFFFFFFD3
:104E0000F7DFFFFFFFDFFFFFFFFFFFFFFFFFFFDF1A
:104E1000FFFFFFFFFFFFFFFFFFFFFFDFFFFFFFFFC2
:104E2000FFFFFFFFFFDFFFFFFFFFFFFFDEFB9491B0
:104E300010C200810081006000600060088118E3FA
:104E40008430DF1CFFFFFFFFFFFFFFFFFFFFF7BE08
:104E5000FFFFFFFFFFFFFFFFFFFFFFDFFFFFFFFF82
:104E6000FFDFFFFFFFFFFFFFFFFFFFFFFFDFFFFF92
:104E7000FFFFFFFFFFFFFFFFFFFFFFFFFFFFFFDF62
:104E8000FFFFEF7DBDB6AD34AD34C5F7E6FCFFFFE7
:104E9000FFFFFFFFFFFFFFDFFFFFFFDFFFFFFFFF62
:104EA000FFFFFFFFFFFFFFFFFFFFFFFFFFFFFFFF12
:104EB000FFFFFFFFFFFFFFFFFFFFFFFFFFFFFFFF02
:104EC000FFFFFFFFFFFFFFFFFFFFFFFFFFFFFFFFF2
:104ED000FFFFFFDFFFFFFFFFFFFFFFDFFFFFFFDF42
:104EE000FFFFFFFFFFDFFFFFFFFFFFFFFFDFFFDF32
:104EF000FFFFFFFFFFFFFFDFFFFFFFFFFFFFFFFFE2
:104F0000FFFFFFFFFFFFFFFFFFFFFFFFFFFFFFDFD1
:104F1000FFFFFFFFFFDFFFFFFFFFFFFFFFFFFFFFC1
:104F2000FFFFFFFFFFDFFFFFFFFFFFFFFFFFFFFFB1
:104F3000FFFFFFDFFFDFFFFFFFFFFFFFFFFFFFFFC1
:104F4000FFFFFFFFFFFFFFFFFFFFFFFFFFFFFFFF71
:104F5000FFFFFFFFFFFFFFFFFFFFFFFFFFFFFFFF61
:104F6000FFFFFFFFFFFFF7FFFFFFFFFFFFFFFFFF59
:104F7000FFFFFFFFFFFFFFFFFFFFFFFFFFFFFFFF41
:104F8000FFFFFFFFFFFFFFFFFFFFFFFFFFFFFFFF31
:104F9000FFFFFFFFFFDFFFFFFFFFFFFFFFFFFFFF41
:104FA000FFFFFFFFFFFFFFFFFFFFFFFFFFFFFFFF11
:104FB000FFFFFFFFFFFFFFFFFFFFFFFFFFFFFFFF01
:104FC000FFFFFFFFFFFFFFFFFFFFFFFFFFFFFFFFF1
:104FD000FFFFFFFFFFFFFFFFFFFFFFFFFFFFFFFFE1
:104FE000FFFFFFFFFFFFFFFFFFFFFFFFFFFFFFDFF1
:104FF000FFFFFFFFFFFFFFFFFFFFFFFFFFFFFFFFC1
:10500000FFFFFFFFF7FFFFFFFFFFFFFFFFFFFFFFB8
:10501000FFFFFFFFFFFFFFFFFFFFFFFFFFDFFFFFC0
:10502000FFFFFFFFFFFFFFFFFFFFFFFFFFFFFFFF90
:10503000FFFFFFFFFFFFFFFFFFFFFFFFFFFFFFFF80
:10504000FFFFFFFFFFFFFFFFFFFFFFFFFFFFFFFF70
:10505000FFFFFFFFFFFFFFFFFFFFFFFFFFFFFFFF60
:10506000FFFFFFFFFFFFFFFFFFFFFFFFFFFFFFFF50
:10507000FFFFFFFFFFFFFFFFFFFFFFFFFFFFFFFF40
:10508000FFFFFFFFFFFFFFFFFFFFFFFFFFDFFFFF50
:10509000FFFFFFFFFFFFFFDFFFFFFFFFFFFFFFFF40
:1050A000FFDFFFFFFFFFFFFFFFFFFFFFFFFFFFFF30
:1050B000FFFFFFFFFFFFFFFFFFFFFFFFFFFFFFFF00
:1050C000FFFFFFFFFFFFFFFFFFFFFFFFFFFFFFFFF0
:1050D000FFFFFFFFFFFFFFFFFFFFFFFFFFFFFFFFE0
:1050E000FFFFFFFFFFFFFFFFFFFFFFFFFFFFFFFFD0
:1050F000FFFFFFFFFFFFFFFFFFFFF7FEFFFEFFFECB
:10510000FFFEFFFEF7FEFFFFF7FFF7FFFFFFFFFFCA
:10511000F7FFF7FFFFFFFFFFFFFFFFFFFFDFFFFFCF
:10512000FFDFFFFFFFFFFFFEFFFFFFFFFFFFFFFFB0
:10513000FFFFFFFFFFFFFFFFFFFFFFFFFFFFFFFF7F
:10514000FFFFFFFFFFFFFFFFFFFFFFFFFFFFFFFF6F
:10515000FFFFFFFFFFFFFFFFFFFFFFFFFFFFFFFF5F
:10516000FFFFFFFFFFFFFFFFFFFFFFFFFFFFFFFF4F
:10517000FFFFFFFFFFDFFFFFFFFFFFFFFFFEFFFE61
:10518000F7FDEFFCEFFCEFFCF7FDEFFCF7FDFFFE9A
:10519000FFFEFFFFFFDFFFFFFFFFFFFFFFFFFFFF40
:1051A000FFDFFFFFFFFFFFFFFFFFFFFFFFFFFFFF2F
:1051B000FFFFFFFFFFFFFFFFFFFFFFFFFFFFFFFFFF
:1051C000FFFFFFFFFFFFFFFFFFFFFFFFFFFFFFFFEF
:1051D000FFFFFFFFFFFFFFFFFFFFFFFFFFFFFFFFDF
:1051E000FFFFFFFFFFFFFFFFFFFFFFDFFFFFFFFFEF
:1051F000FFFFFFFFFFFEF7FEF7FEEFFDE79BCF1877
:10520000AE3495D29DF395919DD29DD2B696C6B7F8
:10521000D75AF7FEFFFEFFFEF7FEF7FDFFFEFFFF8A
:10522000FFFFFFFFFFFFFFFFFFFFFFFFFFFFFFFF8E
:10523000FFFFFFFFFFFFFFFFFFFFFFFFFFFFFFFF7E
:10524000FFFFFFFFFFFFFFFFFFFFFFFFFFFFFFFF6E
:10525000FFFFFFFFFFFFFFFFFFFFFFFFFFFFFFFF5E
:10526000FFFFFFFFFFFFFFFFFFDFFFFFFFFFFFFF6E
:10527000F7FEF7FEEFFDD7FA9E127D0E8D919E137D
:10528000B696CF5ACF3AD75ADF9ACF18BEF8A6347F
:10529000852F852F9E32CFB7E7FCEFFDFFFEFFDFA6
:1052A000FFFFFFFFFFFFFFFFFFFFFFFFFFFFFFFF0E
:1052B000FFFFFFFFFFFFFFFFFFFFFFFFFFFFFFFFFE
:1052C000FFFFFFFFFFFFFFFFFFFFFFFFFFFFFFFFEE
:1052D000FFFFFFFFFFFFFFFFFFFFFFFFFFFFFFFFDE
:1052E000FFFFFFFFFFFFFFFFFFFFFFFFF7FEF7FEE0
:1052F000F7FDBEF785718570B6D5E7FBEFFDE7FDDD
:10530000F7FEF7FEFFFEFFFEFFFEFFFEF7FEEFFDDE
:10531000EFFDEFFCC7778DF17D4FA675EFFDFFFE2A
:10532000FFFFFFFFFFFFFFFFFFFFFFFFFFFFFFFF8D
:10533000FFFFFFFFFFFFFFFFFFFFFFFFFFFFFFFF7D
:10534000FFFFFFFFFFFFFFFFFFFFFFFFFFFFFFFF6D
:10535000FFFFFFFFFFFFFFFFFFFFFFDFFFFFFFFF7D
:10536000FFFFFFFFFFFFFFFFFFFFF7FFE7FDBF7737
:1053700085709DD3F7FDFFFEF7FEF7FEF7FEF7FF02
:10538000FFFFFFBFFF7EC3D0FE5AFE38FFFEF7FED1
:10539000F7FEF7FFF7FFF7FEE7FDA6358570AED500
:1053A000E7FCF7FEFFFFFFFFFFFFFFFFFFFFFFFF31
:1053B000FFFFFFFFFFDFFFFFFFFFFFFFFFFFFFFF1D
:1053C000FFFFFFFFFFFFFFFFFFFFFFFFFFFFFFFFED
:1053D000FFFFFFFFFFFFFFFFFFFFFFFFFFFFF7FFE5
:1053E000FFFFFFFFFFFFFFFFF7FFE7FD7D708590E9
:1053F000DFDAFFFCE617FFBEFFFFFFFFF7FFFFFF4F
:10540000FFFFFF1CFD98AA4BA26BBBF0FFDFFFFF65
:10541000FFFFFFDFFFFFFFFFFFFFFFFDF7FBBE7496
:105420008D50DFDBEFFEFFFFFFFFF7FEFFFFFFFF0B
:10543000FFFFFFFFFFFFFFFFFFFFFFFFFFFFFFFF7C
:10544000FFFFFFFFFFFFFFFFFFFFFFFFFFFFFFFF6C
:10545000FFFFFFFFFFFFFFFFFFFFFFFEF7FEFFFF66
:10546000FFFFFFFFF7FEEFFDC7777D2FC718FFFD9A
:10547000FFDDFE38A229FDD8FFDFFFFFFFFFFFFFA2
:10548000FFFFFF1C926BCBD1FE5AFFBFFFBEFFFF99
:10549000FFFFFFFFFFDFFFDFFF7EE535D431CCD11B
:1054A000E779856FAEB5EFFCF7FEFFFFFFFFFFFF6B
:1054B000FFFFFFFFFFDFFFFFFFFFFFFFFFFFFFFF1C
:1054C000FFFFFFFFFFFFFFFFFFFFFFFFFFFFFFFFEC
:1054D000FFFFFFFFFFFFFFFFFFFFFFFEFFFFFFDEFE
:1054E000FFFFFFFEF7FEAED6854FDFDAFFFDFFDEE2
:1054F000C452FD77D32EE473FFBEFFFFF7FFF7FF23
:10550000F7FDFFFDFF9CFFDDFFFDEFFCFFFDF7FD5D
:10551000F7FEFFFEFFFFFFBFE4F5C2EEFC74BB6EBB
:10552000FFFDE7FB95D1A653F7FDF7FDFFFEFFFF5B
:10553000FFFFFFFFFFFFFFFFFFFFFFFFFFFFFFFF7B
:10554000FFFFFFFFFFFFFFFFFFFFFFFFFFFFFFFF6B
:10555000FFFFFFFFFFFFFFFFFFFFF7FEFFFEFFFF65
:10556000FFFFFFFEB6B695D2EFFEF7FEFFFEEEBAE6
:10557000D472FD16FDD9BBD0DE58EFFDD7FABFB609
:10558000A713862E7DED75AC6DCC864E8E6FB7342D
:10559000CFD8EFFCEFFDFFDEFD16BA0BF433CBF0F6
:1055A000EE58FFFEF7FD9DD39DB3F7FDEFFDFFFF26
:1055B000FFFFFFFFFFDFFFFFFFFFFFFFFFFFFFFF1B
:1055C000FFFFFFFFFFFFFFFFFFFFFFFFFFFFFFFFEB
:1055D000FFFFFFFFFFFFFFFFFFFFFFFFFFFFFFFEDC
:1055E000F7FDBE778D71EFFEF7FFFFFFFFFFFFDED8
:1055F000FF7EB38FEE18EEF9CF178E106D8B5548E6
:105600004D684587458745C73D664DC84D67554838
:105610005D6A7E0EA6D3FFFBDD339A29E4D4FF7EBC
:10562000FFBFFFFFF7FFF7FEAE55A614F7FEF7FE2C
:10563000F7FEFFFFFFFFFFFFFFFFFFFFFFFFFFFF83
:10564000FFFFFFFFFFFFFFFFFFFFFFFFFFFFFFFF6A
:10565000FFFFFFFFFFFFFFFFFFDFFFFFFFFFF7FE83
:10566000D79A8DB1E7FCF7FEFFFFFFFFFFFFFFFEBC
:10567000FF7CE73ADFD97DEE55494D674DA74D8652
:105680004DA745A745C745C74DE845C74DC84DC8B7
:105690004587456745476DCCBEF4FFFCFFFEFFBE66
:1056A000FFFFFFFFFFFFF7FFEFFD8D71BED7F7FE96
:1056B000FFFFFFFFFFFFFFDFFFFFFFFFFFFFFFFF1A
:1056C000FFFFFFFFFFFFFFFFFFFFFFFFFFFFFFFFEA
:1056D000FFFFFFFFFFFFFFFFFFDFFFFFF7FEEFFC16
:1056E0008D30EFFBFFFDFFFEFFFFFFFFFFFFF7FE2B
:1056F000F7FDA6B34D09458845C845C74DE74DE7B9
:1057000045C645C74DE745C845A745A73D674DE890
:1057100045E7460745E745874D2975AEDFFBF7FDB1
:10572000FFFFFFFFFFFFFFFFF7FDEFFC9571D77A4B
:10573000F7FEFFFFFFFFFFFFFFFFFFFFFFFFFFFF82
:10574000FFFFFFFFFFFFFFFFFFFFFFFFFFFFFFFF69
:10575000FFFFFFFFFFFFFFFFFFFFFFFFEFFDAE3388
:10576000DE37FF1CFEDBFF9DFFFFFFFFFFFEEFFCB0
:105770007E0E4D4745A845E845C845C745C745C7BE
:105780004DE745E74DC84DA8454755C9872F4DA85A
:1057900045C7460745C745A74DC94548558ACFF86F
:1057A000F7FDFFFFFFFFFFFFF7FEF7FECF998D919B
:1057B000F7FEFFFFFFFFFFFFFFFFFFFFFFFFFFFF02
:1057C000FFFFFFFFFFFFFFFFFFFFFFFFFFFFFFFFE9
:1057D000FFFFFFFFFFFFFFFFFFFFFFFFC7579D9189
:1057E000E5B789EA9A8BFE9AFFFFF7FEE7FC758D15
:1057F0004D6845C745E73DC645C745C8460845C746
:1058000045E645C64D8845088EB0D7F97EAE45675A
:1058100045C745C645C74DE83DA74E0845A744E7DF
:10582000CFD8FFFDFFFEFFDFFFDFFFBDF7FCADF3CD
:10583000C6B6F7FEFFFFFFFFFFFFFFFFFFFFFFFF03
:10584000FFFFFFFFFFFFFFFFFFFFFFFFFFFFFFFF68
:10585000FFFFFFFFFFFFFFFFFFFFF7FE8D70E799E0
:10586000F679BB909A0AFF1EFFDEEFFD7E2E3D27E4
:1058700045A74DC845A74DE745C745C745E73DE6A0
:105880003E0645E74D289EF3E7FCE7FC4D284DE733
:1058900045E745C645E745C645C745C74DE74D8879
:1058A0004CE8D7F8FF9CBC73AB6F8A8BD4F4FFBD78
:1058B000954FE7FBFFFFFFDFFFFFFFFFFFFFFFFF4E
:1058C000FFFFFFFFFFFFFFFFFFFFFFFFFFFFFFFFE8
:1058D000FFFFFFFFFFFFFFFFF7FDDF799590FFFC64
:1058E000FF9EED36D433ABAFFFDD9E933D274607D9
:1058F00045E745C74DE84DC74DA84DC84DE845E7BC
:105900003DC63D469751DFFAE7FCC7984D2745C68F
:1059100045C74DE745C64E0745E745C74E0745C74E
:105920004D876D6BE759F638FF1EFEFECB91F5F8FB
:105930008CEEAE94F7FFFFFFFFFFFFFFFFFFFFFFBF
:10594000FFFFFFFFFFFFFFFFFFFFFFFFFFFFFFFF67
:10595000FFFFFFFFFFFFFFFFF7FD95D1DFBAFFFD60
:10596000FF7ED4F5FEFCFFFDBF764D084DC845E730
:1059700045E745C645E74DC84D4887108F704547F8
:105980004D687EEEC7F754E9E7FB96514D274DE78A
:1059900045C845C745C745E745E745C73DC645E74F
:1059A00045C855699E51FFBBDC52CB10CB51B3D0DB
:1059B000DF178D90F7FFFFFFFFFFFFFFFFFFFFFFE8
:1059C000FFFFFFFFFFFFFFFFFFFFFFFFFFFFFFFFE7
:1059D000FFFFFFFFFFFFFFFFDFFA8DAFF7FCFFFECA
:1059E000FEFCC4B3FFBDF7FC75ED458845C745E730
:1059F000460745E645E64D88658CD7F98EF04D485B
:105A00005DAABFF65DEA3CA6DFFA758D55884DE7C5
:105A100045A745C845C745C645C645C64E0845C7FE
:105A20004E284DA85529DFB8FE18E454FE7CFEBB75
:105A3000FFFCA5F2DFBBF7FFFFFFFFFFFFFFFFFF4C
:105A4000FFFFFFFFFFFFFFFFFFFFFFFFFFFFFFFF66
:105A5000FFFFFFFFFFFFFFFEAED4B735F7FDFFFFEF
:105A6000FF1CDE38FFFDAEF44D4845C745E745E76E
:105A70003DA645E746074D68BF57E7FC760D45272D
:105A80009791662B45674527DFFA652B4D8845C7FB
:105A900045C74E0845C645E645E6460745A745C7FE
:105AA000460845A745677E0EF79AE618FFDFFFFF19
:105AB000FFFEDFBB95B2EFFDFFFFFFFFFFFFFFFF24
:105AC000FFFFFFFFFFFFFFFFFFFFFFFFFFFFFFFFE6
:105AD000FFFFFFFFFFFFFFFE8DB0CFD9F7FEFFFFF7
:105AE000FFDFFFFEEFFC75AD4D8845E745E745E775
:105AF00045C745C745876E4DDFFBDFFB762E5DEA68
:105B00007ECD4D8845A74548D7FA656C4D8845C779
:105B10004DE845A645E745E645E745E745C845A7BD
:105B200045C745E745C75549D798FFFDFFFEFFFF2D
:105B3000FFFFF7FE8570E7FCFFFFFFFFFFFFFFFFA2
:105B4000FFFFFFFFFFFFFFFFFFFFFFFFFFFFFFFF65
:105B5000FFFFFFFFFFFFF7FD8570EFFDF7FEFFFF83
:105B6000FFFFFFFEC7B75D2A456845E845E745C723
:105B70004DE74D8755699F938E91B7D6764D5DC998
:105B800055E84DE745C83D27CFFA554A4DC945E789
:105B900045C74DE745C646073DE745C745C845C724
:105BA00045E745C74DC755689650F7FCFFFFFFDF37
:105BB000FFFFF7FE9E12D7D9FFFEFFFFFFFFFFFF9B
:105BC000FFFFFFFFFFFFFFFFFFFFFFFFFFFFFFFFE5
:105BD000FFFFFFFFF7FECF399DD3EFFDFFFFFFFF74
:105BE000FFDFF7FD9ED24D284DC845A745A74DE7DD
:105BF0004DA74D6865EBB7F54D09AFF4768D454778
:105C000045C745C645E83D27CFF95D8B45A845C743
:105C100045E745C745E73DC63DE745E845C745E893
:105C200045C745E745A64D87658BDFFAFFFFFFDFD8
:105C3000FFDFFFFFAE94C757FFFDFFFFFFFFFFFF32
:105C4000FFFFFFFFFFFFFFFFFFDFFFFFFFFFFFFF84
:105C5000FFFFFFFFF7FDB656BEB7F7FEFFFFFFFFE2
:105C6000FFFFF7FD760D45884DC845C74DE74587D1
:105C700076AD45288F0F8F3044E7A7D26EAD45A88B
:105C800045E745E646073D45BFF55D6955E945C72A
:105C900045A74DE845C74DE745E745E746073DC7FA
:105CA00045E845C745E745C74D69C7F8F7FEFFDF3B
:105CB000FFFFF7FFB7369611F7FDFFFFFFFFFFFF6E
:105CC000FFFFFFFFFFFFFFFFFFFFFFFFFFFFFFFFE4
:105CD000FFFFFFFFF7FDA634DF9CF7FEFFFFFFFF8E
:105CE000FFFFEFFC5DAA45C74DC745C745C74D87B8
:105CF000A7F444E88F505DEA4D0797B17F0F4588C0
:105D000045E83DC63DC63D45BFF56DCC45674DE810
:105D100045C845C74DC745C645E745E745E745E79B
:105D200045C745E745E745E745679F53F7FEFFDF72
:105D3000FFDFFFFFCFF98DF0F7FDFFFFFFFFFFFF54
:105D4000FFFFFFFFFFFFFFFFFFFFFFFFFFDFFFFF83
:105D5000FFFFF7FFEFFD9DF3E7BCFFFFFFFEFFDE58
:105D6000FFFFDFFB5D8A4DE745E74DE74586662B84
:105D7000BFF7552A6E8C55C84D478F509F72450707
:105D800045C745E74DE73CC5D7F996B14D684DE8A5
:105D900045C745A74DE745A54DC64DE745C745E76E
:105DA00045C645E745E645C745689F12F7FDFFDF55
:105DB000FF5FFFBEDFF97D2EFFFDFFFFFFFFFFFF4F
:105DC000FFFFFFFFFFFFFFFFFFFFFFFFFFFFFFFFE3
:105DD000FFFFF7FFE7FD8D91EFDDFFDFE5F7E6174A
:105DE000FFFECFB9556945A745C64DE745877ECE2D
:105DF000D7F96D8C5DC94DC84D88660BC7F75549FD
:105E00004DA845A75588B7F5D7F98EB0454745E762
:105E100045E845C745A655E74DC745C74DE745C6C3
:105E200045E745C64DE74DC745678E90F7FDFF1C1A
:105E3000924BC4B2F7FB85B0FFFEFFFFFFFFFFFFF1
:105E4000FFFFFFFFFFFFFFFFFFFFFFFFFFFFFFDF82
:105E5000FFFFFFFFE7FD8571EFBDFFBF8967A26A06
:105E6000FFDEC7585DAA45C745E745A745678F10C0
:105E7000D7F986504D484DC84DA74D88C7F765AB3B
:105E80004D485569D7F9B7F54D084DA845A745E7E1
:105E90003DC63DC74E0845A745C745C845C645E769
:105EA0003DC745E745C74DC745677E2EFFFDE5D891
:105EB0008146AB2CF7FB8590FFFEFFFFFFFFFFFF46
:105EC000FFFFFFFFFFFFFFFFFFFFFFFFFFFFFFFFE2
:105ED000FFFFFFFFEFFD95D2E79CFFBFFD56FD568C
:105EE000FFDECFD94D4945E745C74DC745678F1000
:105EF000A733B7B545074DC845677F0EA7B24CE835
:105F00005D6AD7F996D14CE84DA845A64DE745C640
:105F100045E746083DC7460845C745C745E745C765
